{
  "address": "0xe0efb0b646482ffc4866f2f3ec35a178e9772629",
  "txHash": "0xa3eca650b925837d897d4c8aa937f69dc2d1fc8b54cb3f8118e262d3db26875d",
  "abi": [
    {
      "inputs": [
        {
          "internalType": "string",
          "name": "initialPrefix",
          "type": "string"
        }
      ],
      "stateMutability": "nonpayable",
      "type": "constructor"
    },
    {
      "anonymous": false,
      "inputs": [
        {
          "indexed": true,
          "internalType": "address",
          "name": "user",
          "type": "address"
        },
        {
          "indexed": false,
          "internalType": "uint256",
          "name": "timestamp",
          "type": "uint256"
        },
        {
          "indexed": false,
          "internalType": "string",
          "name": "message",
          "type": "string"
        },
        {
          "indexed": false,
          "internalType": "uint24",
          "name": "dayTimeInSeconds",
          "type": "uint24"
        }
      ],
      "name": "MessageChanged",
      "type": "event"
    },
    {
      "inputs": [
        {
          "internalType": "address",
          "name": "user",
          "type": "address"
        }
      ],
      "name": "lastGreetingOf",
      "outputs": [
        {
          "internalType": "string",
          "name": "greeting",
          "type": "string"
        }
      ],
      "stateMutability": "view",
      "type": "function"
    },
    {
      "inputs": [
        {
          "internalType": "address",
          "name": "user",
          "type": "address"
        }
      ],
      "name": "messages",
      "outputs": [
        {
          "components": [
            {
              "internalType": "string",
              "name": "content",
              "type": "string"
            },
            {
              "internalType": "uint256",
              "name": "timestamp",
              "type": "uint256"
            },
            {
              "internalType": "uint24",
              "name": "dayTimeInSeconds",
              "type": "uint24"
            }
          ],
          "internalType": "struct GreetingsRegistry.Message",
          "name": "userMsg",
          "type": "tuple"
        }
      ],
      "stateMutability": "view",
      "type": "function"
    },
    {
      "inputs": [
        {
          "internalType": "string",
          "name": "initialPrefix",
          "type": "string"
        }
      ],
      "name": "postUpgrade",
      "outputs": [],
      "stateMutability": "nonpayable",
      "type": "function"
    },
    {
      "inputs": [],
      "name": "prefix",
      "outputs": [
        {
          "internalType": "string",
          "name": "value",
          "type": "string"
        }
      ],
      "stateMutability": "view",
      "type": "function"
    },
    {
      "inputs": [
        {
          "internalType": "string",
          "name": "message",
          "type": "string"
        },
        {
          "internalType": "uint24",
          "name": "dayTimeInSeconds",
          "type": "uint24"
        }
      ],
      "name": "setMessage",
      "outputs": [],
      "stateMutability": "nonpayable",
      "type": "function"
    },
    {
      "inputs": [
        {
          "internalType": "address",
          "name": "account",
          "type": "address"
        },
        {
          "internalType": "string",
          "name": "message",
          "type": "string"
        },
        {
          "internalType": "uint24",
          "name": "dayTimeInSeconds",
          "type": "uint24"
        }
      ],
      "name": "setMessageFor",
      "outputs": [],
      "stateMutability": "nonpayable",
      "type": "function"
    }
  ],
  "contractName": "GreetingsRegistry",
  "sourceName": "src/GreetingsRegistry.sol",
  "linkReferences": {},
  "deployedLinkReferences": {},
  "devdoc": {
    "events": {
      "MessageChanged(address,uint256,string,uint24)": {
        "details": "the timestamp is included to speedup indexing see: https://ethereum-magicians.org/t/proposal-for-adding-blocktimestamp-to-logs-object-returned-by-eth-getlogs-and-related-requests/11183",
        "params": {
          "dayTimeInSeconds": "the time of the day in seconds where 00:00 => 0 and 23:59 => 82859",
          "message": "the message content",
          "timestamp": "the time at which the message was recorded",
          "user": "the user that send the message"
        }
      }
    },
    "kind": "dev",
    "methods": {
      "constructor": {
        "details": "constructors",
        "params": {
          "initialPrefix": "the prefix that will be prepended to every user message goig forward"
        }
      },
      "lastGreetingOf(address)": {
        "params": {
          "user": "address of the user."
        },
        "returns": {
          "greeting": "the message's content send by the user."
        }
      },
      "messages(address)": {
        "params": {
          "user": "address of the user."
        },
        "returns": {
          "userMsg": "the message send by the user."
        }
      },
      "postUpgrade(string)": {
        "details": "called by the admin when the contract is deployed as a proxy",
        "params": {
          "initialPrefix": "the prefix that will be prepended to every user message goig forward"
        }
      },
      "prefix()": {
        "returns": {
          "value": "prefix string."
        }
      },
      "setMessage(string,uint24)": {
        "params": {
          "dayTimeInSeconds": "the time of the day in seconds the message was written.",
          "message": "the value to set as content."
        }
      },
      "setMessageFor(address,string,uint24)": {
        "params": {
          "account": "address which will have its greetings set",
          "dayTimeInSeconds": "the time of the day in seconds the message was written.",
          "message": "the value to set as content."
        }
      }
    },
    "version": 1
  },
  "evm": {
    "bytecode": {
      "linkReferences": {},
      "object": "608060405234801562000010575f80fd5b5060405162001648380380620016488339818101604052810190620000369190620002ce565b62000047816200004e60201b60201c565b5062000638565b5f6200005f6200012160201b60201c565b90505f73ffffffffffffffffffffffffffffffffffffffff168173ffffffffffffffffffffffffffffffffffffffff1603620000d25773ffffffffffffffffffffffffffffffffffffffff7fb53127684a568b3173ae13b9f8a6016e243e63b6e8ee1178d6a717850b5d6103556200010b565b8073ffffffffffffffffffffffffffffffffffffffff163373ffffffffffffffffffffffffffffffffffffffff16146200010a575f80fd5b5b81600190816200011c919062000554565b505050565b5f7fb53127684a568b3173ae13b9f8a6016e243e63b6e8ee1178d6a717850b5d610354905090565b5f604051905090565b5f80fd5b5f80fd5b5f80fd5b5f80fd5b5f601f19601f8301169050919050565b7f4e487b71000000000000000000000000000000000000000000000000000000005f52604160045260245ffd5b620001aa8262000162565b810181811067ffffffffffffffff82111715620001cc57620001cb62000172565b5b80604052505050565b5f620001e062000149565b9050620001ee82826200019f565b919050565b5f67ffffffffffffffff82111562000210576200020f62000172565b5b6200021b8262000162565b9050602081019050919050565b5f5b83811015620002475780820151818401526020810190506200022a565b5f8484015250505050565b5f620002686200026284620001f3565b620001d5565b9050828152602081018484840111156200028757620002866200015e565b5b6200029484828562000228565b509392505050565b5f82601f830112620002b357620002b26200015a565b5b8151620002c584826020860162000252565b91505092915050565b5f60208284031215620002e657620002e562000152565b5b5f82015167ffffffffffffffff81111562000306576200030562000156565b5b62000314848285016200029c565b91505092915050565b5f81519050919050565b7f4e487b71000000000000000000000000000000000000000000000000000000005f52602260045260245ffd5b5f60028204905060018216806200036c57607f821691505b60208210810362000382576200038162000327565b5b50919050565b5f819050815f5260205f209050919050565b5f6020601f8301049050919050565b5f82821b905092915050565b5f60088302620003e67fffffffffffffffffffffffffffffffffffffffffffffffffffffffffffffffff82620003a9565b620003f28683620003a9565b95508019841693508086168417925050509392505050565b5f819050919050565b5f819050919050565b5f6200043c6200043662000430846200040a565b62000413565b6200040a565b9050919050565b5f819050919050565b62000457836200041c565b6200046f620004668262000443565b848454620003b5565b825550505050565b5f90565b6200048562000477565b620004928184846200044c565b505050565b5b81811015620004b957620004ad5f826200047b565b60018101905062000498565b5050565b601f8211156200050857620004d28162000388565b620004dd846200039a565b81016020851015620004ed578190505b62000505620004fc856200039a565b83018262000497565b50505b505050565b5f82821c905092915050565b5f6200052a5f19846008026200050d565b1980831691505092915050565b5f62000544838362000519565b9150826002028217905092915050565b6200055f826200031d565b67ffffffffffffffff8111156200057b576200057a62000172565b5b62000587825462000354565b62000594828285620004bd565b5f60209050601f831160018114620005ca575f8415620005b5578287015190505b620005c1858262000537565b86555062000630565b601f198416620005da8662000388565b5f5b828110156200060357848901518255600182019150602085019450602081019050620005dc565b868310156200062357848901516200061f601f89168262000519565b8355505b6001600288020188555050505b505050505050565b61100280620006465f395ff3fe608060405234801561000f575f80fd5b5060043610610060575f3560e01c806303433b8e14610064578063334c9bba146100945780634c2dd808146100b05780635fdd59f8146100cc57806375dadb32146100fc578063b1441ce61461011a575b5f80fd5b61007e600480360381019061007991906106d5565b610136565b60405161008b919061078a565b60405180910390f35b6100ae60048036038101906100a99190610843565b610204565b005b6100ca60048036038101906100c591906108b4565b610284565b005b6100e660048036038101906100e191906106d5565b610295565b6040516100f391906109cd565b60405180910390f35b6101046103a6565b604051610111919061078a565b60405180910390f35b610134600480360381019061012f9190610b15565b610436565b005b60605f808373ffffffffffffffffffffffffffffffffffffffff1673ffffffffffffffffffffffffffffffffffffffff1681526020019081526020015f205f01805461018190610b89565b80601f01602080910402602001604051908101604052809291908181526020018280546101ad90610b89565b80156101f85780601f106101cf576101008083540402835291602001916101f8565b820191905f5260205f20905b8154815290600101906020018083116101db57829003601f168201915b50505050509050919050565b8373ffffffffffffffffffffffffffffffffffffffff163373ffffffffffffffffffffffffffffffffffffffff1614610272576040517f08c379a000000000000000000000000000000000000000000000000000000000815260040161026990610c03565b60405180910390fd5b61027e848484846104fc565b50505050565b610290338484846104fc565b505050565b61029d610646565b5f808373ffffffffffffffffffffffffffffffffffffffff1673ffffffffffffffffffffffffffffffffffffffff1681526020019081526020015f206040518060600160405290815f820180546102f390610b89565b80601f016020809104026020016040519081016040528092919081815260200182805461031f90610b89565b801561036a5780601f106103415761010080835404028352916020019161036a565b820191905f5260205f20905b81548152906001019060200180831161034d57829003601f168201915b5050505050815260200160018201548152602001600282015f9054906101000a900462ffffff1662ffffff1662ffffff16815250509050919050565b6060600180546103b590610b89565b80601f01602080910402602001604051908101604052809291908181526020018280546103e190610b89565b801561042c5780601f106104035761010080835404028352916020019161042c565b820191905f5260205f20905b81548152906001019060200180831161040f57829003601f168201915b5050505050905090565b5f61043f61061e565b90505f73ffffffffffffffffffffffffffffffffffffffff168173ffffffffffffffffffffffffffffffffffffffff16036104b05773ffffffffffffffffffffffffffffffffffffffff7fb53127684a568b3173ae13b9f8a6016e243e63b6e8ee1178d6a717850b5d6103556104e8565b8073ffffffffffffffffffffffffffffffffffffffff163373ffffffffffffffffffffffffffffffffffffffff16146104e7575f80fd5b5b81600190816104f79190610dbe565b505050565b5f6001848460405160200161051393929190610f4d565b604051602081830303815290604052905060405180606001604052808281526020014281526020018362ffffff168152505f808773ffffffffffffffffffffffffffffffffffffffff1673ffffffffffffffffffffffffffffffffffffffff1681526020019081526020015f205f820151815f0190816105939190610dbe565b50602082015181600101556040820151816002015f6101000a81548162ffffff021916908362ffffff1602179055509050508473ffffffffffffffffffffffffffffffffffffffff167f4650083cdd22f274f233c0ae8b1e5a23037ced29923011d703349cdeeface1af42838560405161060f93929190610f90565b60405180910390a25050505050565b5f7fb53127684a568b3173ae13b9f8a6016e243e63b6e8ee1178d6a717850b5d610354905090565b6040518060600160405280606081526020015f81526020015f62ffffff1681525090565b5f604051905090565b5f80fd5b5f80fd5b5f73ffffffffffffffffffffffffffffffffffffffff82169050919050565b5f6106a48261067b565b9050919050565b6106b48161069a565b81146106be575f80fd5b50565b5f813590506106cf816106ab565b92915050565b5f602082840312156106ea576106e9610673565b5b5f6106f7848285016106c1565b91505092915050565b5f81519050919050565b5f82825260208201905092915050565b5f5b8381101561073757808201518184015260208101905061071c565b5f8484015250505050565b5f601f19601f8301169050919050565b5f61075c82610700565b610766818561070a565b935061077681856020860161071a565b61077f81610742565b840191505092915050565b5f6020820190508181035f8301526107a28184610752565b905092915050565b5f80fd5b5f80fd5b5f80fd5b5f8083601f8401126107cb576107ca6107aa565b5b8235905067ffffffffffffffff8111156107e8576107e76107ae565b5b602083019150836001820283011115610804576108036107b2565b5b9250929050565b5f62ffffff82169050919050565b6108228161080b565b811461082c575f80fd5b50565b5f8135905061083d81610819565b92915050565b5f805f806060858703121561085b5761085a610673565b5b5f610868878288016106c1565b945050602085013567ffffffffffffffff81111561088957610888610677565b5b610895878288016107b6565b935093505060406108a88782880161082f565b91505092959194509250565b5f805f604084860312156108cb576108ca610673565b5b5f84013567ffffffffffffffff8111156108e8576108e7610677565b5b6108f4868287016107b6565b935093505060206109078682870161082f565b9150509250925092565b5f82825260208201905092915050565b5f61092b82610700565b6109358185610911565b935061094581856020860161071a565b61094e81610742565b840191505092915050565b5f819050919050565b61096b81610959565b82525050565b61097a8161080b565b82525050565b5f606083015f8301518482035f86015261099a8282610921565b91505060208301516109af6020860182610962565b5060408301516109c26040860182610971565b508091505092915050565b5f6020820190508181035f8301526109e58184610980565b905092915050565b5f80fd5b7f4e487b71000000000000000000000000000000000000000000000000000000005f52604160045260245ffd5b610a2782610742565b810181811067ffffffffffffffff82111715610a4657610a456109f1565b5b80604052505050565b5f610a5861066a565b9050610a648282610a1e565b919050565b5f67ffffffffffffffff821115610a8357610a826109f1565b5b610a8c82610742565b9050602081019050919050565b828183375f83830152505050565b5f610ab9610ab484610a69565b610a4f565b905082815260208101848484011115610ad557610ad46109ed565b5b610ae0848285610a99565b509392505050565b5f82601f830112610afc57610afb6107aa565b5b8135610b0c848260208601610aa7565b91505092915050565b5f60208284031215610b2a57610b29610673565b5b5f82013567ffffffffffffffff811115610b4757610b46610677565b5b610b5384828501610ae8565b91505092915050565b7f4e487b71000000000000000000000000000000000000000000000000000000005f52602260045260245ffd5b5f6002820490506001821680610ba057607f821691505b602082108103610bb357610bb2610b5c565b5b50919050565b7f4e4f545f415554484f52495a45440000000000000000000000000000000000005f82015250565b5f610bed600e8361070a565b9150610bf882610bb9565b602082019050919050565b5f6020820190508181035f830152610c1a81610be1565b9050919050565b5f819050815f5260205f209050919050565b5f6020601f8301049050919050565b5f82821b905092915050565b5f60088302610c7d7fffffffffffffffffffffffffffffffffffffffffffffffffffffffffffffffff82610c42565b610c878683610c42565b95508019841693508086168417925050509392505050565b5f819050919050565b5f610cc2610cbd610cb884610959565b610c9f565b610959565b9050919050565b5f819050919050565b610cdb83610ca8565b610cef610ce782610cc9565b848454610c4e565b825550505050565b5f90565b610d03610cf7565b610d0e818484610cd2565b505050565b5b81811015610d3157610d265f82610cfb565b600181019050610d14565b5050565b601f821115610d7657610d4781610c21565b610d5084610c33565b81016020851015610d5f578190505b610d73610d6b85610c33565b830182610d13565b50505b505050565b5f82821c905092915050565b5f610d965f1984600802610d7b565b1980831691505092915050565b5f610dae8383610d87565b9150826002028217905092915050565b610dc782610700565b67ffffffffffffffff811115610de057610ddf6109f1565b5b610dea8254610b89565b610df5828285610d35565b5f60209050601f831160018114610e26575f8415610e14578287015190505b610e1e8582610da3565b865550610e85565b601f198416610e3486610c21565b5f5b82811015610e5b57848901518255600182019150602085019450602081019050610e36565b86831015610e785784890151610e74601f891682610d87565b8355505b6001600288020188555050505b505050505050565b5f81905092915050565b5f819050815f5260205f209050919050565b5f8154610eb581610b89565b610ebf8186610e8d565b9450600182165f8114610ed95760018114610eee57610f20565b60ff1983168652811515820286019350610f20565b610ef785610e97565b5f5b83811015610f1857815481890152600182019150602081019050610ef9565b838801955050505b50505092915050565b5f610f348385610e8d565b9350610f41838584610a99565b82840190509392505050565b5f610f588286610ea9565b9150610f65828486610f29565b9150819050949350505050565b610f7b81610959565b82525050565b610f8a8161080b565b82525050565b5f606082019050610fa35f830186610f72565b8181036020830152610fb58185610752565b9050610fc46040830184610f81565b94935050505056fea26469706673582212208bc4c70ea29fc987bf180daddd5056896b2252ea74b980c9081a02a76646184964736f6c63430008140033",
      "opcodes": "PUSH1 0x80 PUSH1 0x40 MSTORE CALLVALUE DUP1 ISZERO PUSH3 0x10 JUMPI PUSH0 DUP1 REVERT JUMPDEST POP PUSH1 0x40 MLOAD PUSH3 0x1648 CODESIZE SUB DUP1 PUSH3 0x1648 DUP4 CODECOPY DUP2 DUP2 ADD PUSH1 0x40 MSTORE DUP2 ADD SWAP1 PUSH3 0x36 SWAP2 SWAP1 PUSH3 0x2CE JUMP JUMPDEST PUSH3 0x47 DUP2 PUSH3 0x4E PUSH1 0x20 SHL PUSH1 0x20 SHR JUMP JUMPDEST POP PUSH3 0x638 JUMP JUMPDEST PUSH0 PUSH3 0x5F PUSH3 0x121 PUSH1 0x20 SHL PUSH1 0x20 SHR JUMP JUMPDEST SWAP1 POP PUSH0 PUSH20 0xFFFFFFFFFFFFFFFFFFFFFFFFFFFFFFFFFFFFFFFF AND DUP2 PUSH20 0xFFFFFFFFFFFFFFFFFFFFFFFFFFFFFFFFFFFFFFFF AND SUB PUSH3 0xD2 JUMPI PUSH20 0xFFFFFFFFFFFFFFFFFFFFFFFFFFFFFFFFFFFFFFFF PUSH32 0xB53127684A568B3173AE13B9F8A6016E243E63B6E8EE1178D6A717850B5D6103 SSTORE PUSH3 0x10B JUMP JUMPDEST DUP1 PUSH20 0xFFFFFFFFFFFFFFFFFFFFFFFFFFFFFFFFFFFFFFFF AND CALLER PUSH20 0xFFFFFFFFFFFFFFFFFFFFFFFFFFFFFFFFFFFFFFFF AND EQ PUSH3 0x10A JUMPI PUSH0 DUP1 REVERT JUMPDEST JUMPDEST DUP2 PUSH1 0x1 SWAP1 DUP2 PUSH3 0x11C SWAP2 SWAP1 PUSH3 0x554 JUMP JUMPDEST POP POP POP JUMP JUMPDEST PUSH0 PUSH32 0xB53127684A568B3173AE13B9F8A6016E243E63B6E8EE1178D6A717850B5D6103 SLOAD SWAP1 POP SWAP1 JUMP JUMPDEST PUSH0 PUSH1 0x40 MLOAD SWAP1 POP SWAP1 JUMP JUMPDEST PUSH0 DUP1 REVERT JUMPDEST PUSH0 DUP1 REVERT JUMPDEST PUSH0 DUP1 REVERT JUMPDEST PUSH0 DUP1 REVERT JUMPDEST PUSH0 PUSH1 0x1F NOT PUSH1 0x1F DUP4 ADD AND SWAP1 POP SWAP2 SWAP1 POP JUMP JUMPDEST PUSH32 0x4E487B7100000000000000000000000000000000000000000000000000000000 PUSH0 MSTORE PUSH1 0x41 PUSH1 0x4 MSTORE PUSH1 0x24 PUSH0 REVERT JUMPDEST PUSH3 0x1AA DUP3 PUSH3 0x162 JUMP JUMPDEST DUP2 ADD DUP2 DUP2 LT PUSH8 0xFFFFFFFFFFFFFFFF DUP3 GT OR ISZERO PUSH3 0x1CC JUMPI PUSH3 0x1CB PUSH3 0x172 JUMP JUMPDEST JUMPDEST DUP1 PUSH1 0x40 MSTORE POP POP POP JUMP JUMPDEST PUSH0 PUSH3 0x1E0 PUSH3 0x149 JUMP JUMPDEST SWAP1 POP PUSH3 0x1EE DUP3 DUP3 PUSH3 0x19F JUMP JUMPDEST SWAP2 SWAP1 POP JUMP JUMPDEST PUSH0 PUSH8 0xFFFFFFFFFFFFFFFF DUP3 GT ISZERO PUSH3 0x210 JUMPI PUSH3 0x20F PUSH3 0x172 JUMP JUMPDEST JUMPDEST PUSH3 0x21B DUP3 PUSH3 0x162 JUMP JUMPDEST SWAP1 POP PUSH1 0x20 DUP2 ADD SWAP1 POP SWAP2 SWAP1 POP JUMP JUMPDEST PUSH0 JUMPDEST DUP4 DUP2 LT ISZERO PUSH3 0x247 JUMPI DUP1 DUP3 ADD MLOAD DUP2 DUP5 ADD MSTORE PUSH1 0x20 DUP2 ADD SWAP1 POP PUSH3 0x22A JUMP JUMPDEST PUSH0 DUP5 DUP5 ADD MSTORE POP POP POP POP JUMP JUMPDEST PUSH0 PUSH3 0x268 PUSH3 0x262 DUP5 PUSH3 0x1F3 JUMP JUMPDEST PUSH3 0x1D5 JUMP JUMPDEST SWAP1 POP DUP3 DUP2 MSTORE PUSH1 0x20 DUP2 ADD DUP5 DUP5 DUP5 ADD GT ISZERO PUSH3 0x287 JUMPI PUSH3 0x286 PUSH3 0x15E JUMP JUMPDEST JUMPDEST PUSH3 0x294 DUP5 DUP3 DUP6 PUSH3 0x228 JUMP JUMPDEST POP SWAP4 SWAP3 POP POP POP JUMP JUMPDEST PUSH0 DUP3 PUSH1 0x1F DUP4 ADD SLT PUSH3 0x2B3 JUMPI PUSH3 0x2B2 PUSH3 0x15A JUMP JUMPDEST JUMPDEST DUP2 MLOAD PUSH3 0x2C5 DUP5 DUP3 PUSH1 0x20 DUP7 ADD PUSH3 0x252 JUMP JUMPDEST SWAP2 POP POP SWAP3 SWAP2 POP POP JUMP JUMPDEST PUSH0 PUSH1 0x20 DUP3 DUP5 SUB SLT ISZERO PUSH3 0x2E6 JUMPI PUSH3 0x2E5 PUSH3 0x152 JUMP JUMPDEST JUMPDEST PUSH0 DUP3 ADD MLOAD PUSH8 0xFFFFFFFFFFFFFFFF DUP2 GT ISZERO PUSH3 0x306 JUMPI PUSH3 0x305 PUSH3 0x156 JUMP JUMPDEST JUMPDEST PUSH3 0x314 DUP5 DUP3 DUP6 ADD PUSH3 0x29C JUMP JUMPDEST SWAP2 POP POP SWAP3 SWAP2 POP POP JUMP JUMPDEST PUSH0 DUP2 MLOAD SWAP1 POP SWAP2 SWAP1 POP JUMP JUMPDEST PUSH32 0x4E487B7100000000000000000000000000000000000000000000000000000000 PUSH0 MSTORE PUSH1 0x22 PUSH1 0x4 MSTORE PUSH1 0x24 PUSH0 REVERT JUMPDEST PUSH0 PUSH1 0x2 DUP3 DIV SWAP1 POP PUSH1 0x1 DUP3 AND DUP1 PUSH3 0x36C JUMPI PUSH1 0x7F DUP3 AND SWAP2 POP JUMPDEST PUSH1 0x20 DUP3 LT DUP2 SUB PUSH3 0x382 JUMPI PUSH3 0x381 PUSH3 0x327 JUMP JUMPDEST JUMPDEST POP SWAP2 SWAP1 POP JUMP JUMPDEST PUSH0 DUP2 SWAP1 POP DUP2 PUSH0 MSTORE PUSH1 0x20 PUSH0 KECCAK256 SWAP1 POP SWAP2 SWAP1 POP JUMP JUMPDEST PUSH0 PUSH1 0x20 PUSH1 0x1F DUP4 ADD DIV SWAP1 POP SWAP2 SWAP1 POP JUMP JUMPDEST PUSH0 DUP3 DUP3 SHL SWAP1 POP SWAP3 SWAP2 POP POP JUMP JUMPDEST PUSH0 PUSH1 0x8 DUP4 MUL PUSH3 0x3E6 PUSH32 0xFFFFFFFFFFFFFFFFFFFFFFFFFFFFFFFFFFFFFFFFFFFFFFFFFFFFFFFFFFFFFFFF DUP3 PUSH3 0x3A9 JUMP JUMPDEST PUSH3 0x3F2 DUP7 DUP4 PUSH3 0x3A9 JUMP JUMPDEST SWAP6 POP DUP1 NOT DUP5 AND SWAP4 POP DUP1 DUP7 AND DUP5 OR SWAP3 POP POP POP SWAP4 SWAP3 POP POP POP JUMP JUMPDEST PUSH0 DUP2 SWAP1 POP SWAP2 SWAP1 POP JUMP JUMPDEST PUSH0 DUP2 SWAP1 POP SWAP2 SWAP1 POP JUMP JUMPDEST PUSH0 PUSH3 0x43C PUSH3 0x436 PUSH3 0x430 DUP5 PUSH3 0x40A JUMP JUMPDEST PUSH3 0x413 JUMP JUMPDEST PUSH3 0x40A JUMP JUMPDEST SWAP1 POP SWAP2 SWAP1 POP JUMP JUMPDEST PUSH0 DUP2 SWAP1 POP SWAP2 SWAP1 POP JUMP JUMPDEST PUSH3 0x457 DUP4 PUSH3 0x41C JUMP JUMPDEST PUSH3 0x46F PUSH3 0x466 DUP3 PUSH3 0x443 JUMP JUMPDEST DUP5 DUP5 SLOAD PUSH3 0x3B5 JUMP JUMPDEST DUP3 SSTORE POP POP POP POP JUMP JUMPDEST PUSH0 SWAP1 JUMP JUMPDEST PUSH3 0x485 PUSH3 0x477 JUMP JUMPDEST PUSH3 0x492 DUP2 DUP5 DUP5 PUSH3 0x44C JUMP JUMPDEST POP POP POP JUMP JUMPDEST JUMPDEST DUP2 DUP2 LT ISZERO PUSH3 0x4B9 JUMPI PUSH3 0x4AD PUSH0 DUP3 PUSH3 0x47B JUMP JUMPDEST PUSH1 0x1 DUP2 ADD SWAP1 POP PUSH3 0x498 JUMP JUMPDEST POP POP JUMP JUMPDEST PUSH1 0x1F DUP3 GT ISZERO PUSH3 0x508 JUMPI PUSH3 0x4D2 DUP2 PUSH3 0x388 JUMP JUMPDEST PUSH3 0x4DD DUP5 PUSH3 0x39A JUMP JUMPDEST DUP2 ADD PUSH1 0x20 DUP6 LT ISZERO PUSH3 0x4ED JUMPI DUP2 SWAP1 POP JUMPDEST PUSH3 0x505 PUSH3 0x4FC DUP6 PUSH3 0x39A JUMP JUMPDEST DUP4 ADD DUP3 PUSH3 0x497 JUMP JUMPDEST POP POP JUMPDEST POP POP POP JUMP JUMPDEST PUSH0 DUP3 DUP3 SHR SWAP1 POP SWAP3 SWAP2 POP POP JUMP JUMPDEST PUSH0 PUSH3 0x52A PUSH0 NOT DUP5 PUSH1 0x8 MUL PUSH3 0x50D JUMP JUMPDEST NOT DUP1 DUP4 AND SWAP2 POP POP SWAP3 SWAP2 POP POP JUMP JUMPDEST PUSH0 PUSH3 0x544 DUP4 DUP4 PUSH3 0x519 JUMP JUMPDEST SWAP2 POP DUP3 PUSH1 0x2 MUL DUP3 OR SWAP1 POP SWAP3 SWAP2 POP POP JUMP JUMPDEST PUSH3 0x55F DUP3 PUSH3 0x31D JUMP JUMPDEST PUSH8 0xFFFFFFFFFFFFFFFF DUP2 GT ISZERO PUSH3 0x57B JUMPI PUSH3 0x57A PUSH3 0x172 JUMP JUMPDEST JUMPDEST PUSH3 0x587 DUP3 SLOAD PUSH3 0x354 JUMP JUMPDEST PUSH3 0x594 DUP3 DUP3 DUP6 PUSH3 0x4BD JUMP JUMPDEST PUSH0 PUSH1 0x20 SWAP1 POP PUSH1 0x1F DUP4 GT PUSH1 0x1 DUP2 EQ PUSH3 0x5CA JUMPI PUSH0 DUP5 ISZERO PUSH3 0x5B5 JUMPI DUP3 DUP8 ADD MLOAD SWAP1 POP JUMPDEST PUSH3 0x5C1 DUP6 DUP3 PUSH3 0x537 JUMP JUMPDEST DUP7 SSTORE POP PUSH3 0x630 JUMP JUMPDEST PUSH1 0x1F NOT DUP5 AND PUSH3 0x5DA DUP7 PUSH3 0x388 JUMP JUMPDEST PUSH0 JUMPDEST DUP3 DUP2 LT ISZERO PUSH3 0x603 JUMPI DUP5 DUP10 ADD MLOAD DUP3 SSTORE PUSH1 0x1 DUP3 ADD SWAP2 POP PUSH1 0x20 DUP6 ADD SWAP5 POP PUSH1 0x20 DUP2 ADD SWAP1 POP PUSH3 0x5DC JUMP JUMPDEST DUP7 DUP4 LT ISZERO PUSH3 0x623 JUMPI DUP5 DUP10 ADD MLOAD PUSH3 0x61F PUSH1 0x1F DUP10 AND DUP3 PUSH3 0x519 JUMP JUMPDEST DUP4 SSTORE POP JUMPDEST PUSH1 0x1 PUSH1 0x2 DUP9 MUL ADD DUP9 SSTORE POP POP POP JUMPDEST POP POP POP POP POP POP JUMP JUMPDEST PUSH2 0x1002 DUP1 PUSH3 0x646 PUSH0 CODECOPY PUSH0 RETURN INVALID PUSH1 0x80 PUSH1 0x40 MSTORE CALLVALUE DUP1 ISZERO PUSH2 0xF JUMPI PUSH0 DUP1 REVERT JUMPDEST POP PUSH1 0x4 CALLDATASIZE LT PUSH2 0x60 JUMPI PUSH0 CALLDATALOAD PUSH1 0xE0 SHR DUP1 PUSH4 0x3433B8E EQ PUSH2 0x64 JUMPI DUP1 PUSH4 0x334C9BBA EQ PUSH2 0x94 JUMPI DUP1 PUSH4 0x4C2DD808 EQ PUSH2 0xB0 JUMPI DUP1 PUSH4 0x5FDD59F8 EQ PUSH2 0xCC JUMPI DUP1 PUSH4 0x75DADB32 EQ PUSH2 0xFC JUMPI DUP1 PUSH4 0xB1441CE6 EQ PUSH2 0x11A JUMPI JUMPDEST PUSH0 DUP1 REVERT JUMPDEST PUSH2 0x7E PUSH1 0x4 DUP1 CALLDATASIZE SUB DUP2 ADD SWAP1 PUSH2 0x79 SWAP2 SWAP1 PUSH2 0x6D5 JUMP JUMPDEST PUSH2 0x136 JUMP JUMPDEST PUSH1 0x40 MLOAD PUSH2 0x8B SWAP2 SWAP1 PUSH2 0x78A JUMP JUMPDEST PUSH1 0x40 MLOAD DUP1 SWAP2 SUB SWAP1 RETURN JUMPDEST PUSH2 0xAE PUSH1 0x4 DUP1 CALLDATASIZE SUB DUP2 ADD SWAP1 PUSH2 0xA9 SWAP2 SWAP1 PUSH2 0x843 JUMP JUMPDEST PUSH2 0x204 JUMP JUMPDEST STOP JUMPDEST PUSH2 0xCA PUSH1 0x4 DUP1 CALLDATASIZE SUB DUP2 ADD SWAP1 PUSH2 0xC5 SWAP2 SWAP1 PUSH2 0x8B4 JUMP JUMPDEST PUSH2 0x284 JUMP JUMPDEST STOP JUMPDEST PUSH2 0xE6 PUSH1 0x4 DUP1 CALLDATASIZE SUB DUP2 ADD SWAP1 PUSH2 0xE1 SWAP2 SWAP1 PUSH2 0x6D5 JUMP JUMPDEST PUSH2 0x295 JUMP JUMPDEST PUSH1 0x40 MLOAD PUSH2 0xF3 SWAP2 SWAP1 PUSH2 0x9CD JUMP JUMPDEST PUSH1 0x40 MLOAD DUP1 SWAP2 SUB SWAP1 RETURN JUMPDEST PUSH2 0x104 PUSH2 0x3A6 JUMP JUMPDEST PUSH1 0x40 MLOAD PUSH2 0x111 SWAP2 SWAP1 PUSH2 0x78A JUMP JUMPDEST PUSH1 0x40 MLOAD DUP1 SWAP2 SUB SWAP1 RETURN JUMPDEST PUSH2 0x134 PUSH1 0x4 DUP1 CALLDATASIZE SUB DUP2 ADD SWAP1 PUSH2 0x12F SWAP2 SWAP1 PUSH2 0xB15 JUMP JUMPDEST PUSH2 0x436 JUMP JUMPDEST STOP JUMPDEST PUSH1 0x60 PUSH0 DUP1 DUP4 PUSH20 0xFFFFFFFFFFFFFFFFFFFFFFFFFFFFFFFFFFFFFFFF AND PUSH20 0xFFFFFFFFFFFFFFFFFFFFFFFFFFFFFFFFFFFFFFFF AND DUP2 MSTORE PUSH1 0x20 ADD SWAP1 DUP2 MSTORE PUSH1 0x20 ADD PUSH0 KECCAK256 PUSH0 ADD DUP1 SLOAD PUSH2 0x181 SWAP1 PUSH2 0xB89 JUMP JUMPDEST DUP1 PUSH1 0x1F ADD PUSH1 0x20 DUP1 SWAP2 DIV MUL PUSH1 0x20 ADD PUSH1 0x40 MLOAD SWAP1 DUP2 ADD PUSH1 0x40 MSTORE DUP1 SWAP3 SWAP2 SWAP1 DUP2 DUP2 MSTORE PUSH1 0x20 ADD DUP3 DUP1 SLOAD PUSH2 0x1AD SWAP1 PUSH2 0xB89 JUMP JUMPDEST DUP1 ISZERO PUSH2 0x1F8 JUMPI DUP1 PUSH1 0x1F LT PUSH2 0x1CF JUMPI PUSH2 0x100 DUP1 DUP4 SLOAD DIV MUL DUP4 MSTORE SWAP2 PUSH1 0x20 ADD SWAP2 PUSH2 0x1F8 JUMP JUMPDEST DUP3 ADD SWAP2 SWAP1 PUSH0 MSTORE PUSH1 0x20 PUSH0 KECCAK256 SWAP1 JUMPDEST DUP2 SLOAD DUP2 MSTORE SWAP1 PUSH1 0x1 ADD SWAP1 PUSH1 0x20 ADD DUP1 DUP4 GT PUSH2 0x1DB JUMPI DUP3 SWAP1 SUB PUSH1 0x1F AND DUP3 ADD SWAP2 JUMPDEST POP POP POP POP POP SWAP1 POP SWAP2 SWAP1 POP JUMP JUMPDEST DUP4 PUSH20 0xFFFFFFFFFFFFFFFFFFFFFFFFFFFFFFFFFFFFFFFF AND CALLER PUSH20 0xFFFFFFFFFFFFFFFFFFFFFFFFFFFFFFFFFFFFFFFF AND EQ PUSH2 0x272 JUMPI PUSH1 0x40 MLOAD PUSH32 0x8C379A000000000000000000000000000000000000000000000000000000000 DUP2 MSTORE PUSH1 0x4 ADD PUSH2 0x269 SWAP1 PUSH2 0xC03 JUMP JUMPDEST PUSH1 0x40 MLOAD DUP1 SWAP2 SUB SWAP1 REVERT JUMPDEST PUSH2 0x27E DUP5 DUP5 DUP5 DUP5 PUSH2 0x4FC JUMP JUMPDEST POP POP POP POP JUMP JUMPDEST PUSH2 0x290 CALLER DUP5 DUP5 DUP5 PUSH2 0x4FC JUMP JUMPDEST POP POP POP JUMP JUMPDEST PUSH2 0x29D PUSH2 0x646 JUMP JUMPDEST PUSH0 DUP1 DUP4 PUSH20 0xFFFFFFFFFFFFFFFFFFFFFFFFFFFFFFFFFFFFFFFF AND PUSH20 0xFFFFFFFFFFFFFFFFFFFFFFFFFFFFFFFFFFFFFFFF AND DUP2 MSTORE PUSH1 0x20 ADD SWAP1 DUP2 MSTORE PUSH1 0x20 ADD PUSH0 KECCAK256 PUSH1 0x40 MLOAD DUP1 PUSH1 0x60 ADD PUSH1 0x40 MSTORE SWAP1 DUP2 PUSH0 DUP3 ADD DUP1 SLOAD PUSH2 0x2F3 SWAP1 PUSH2 0xB89 JUMP JUMPDEST DUP1 PUSH1 0x1F ADD PUSH1 0x20 DUP1 SWAP2 DIV MUL PUSH1 0x20 ADD PUSH1 0x40 MLOAD SWAP1 DUP2 ADD PUSH1 0x40 MSTORE DUP1 SWAP3 SWAP2 SWAP1 DUP2 DUP2 MSTORE PUSH1 0x20 ADD DUP3 DUP1 SLOAD PUSH2 0x31F SWAP1 PUSH2 0xB89 JUMP JUMPDEST DUP1 ISZERO PUSH2 0x36A JUMPI DUP1 PUSH1 0x1F LT PUSH2 0x341 JUMPI PUSH2 0x100 DUP1 DUP4 SLOAD DIV MUL DUP4 MSTORE SWAP2 PUSH1 0x20 ADD SWAP2 PUSH2 0x36A JUMP JUMPDEST DUP3 ADD SWAP2 SWAP1 PUSH0 MSTORE PUSH1 0x20 PUSH0 KECCAK256 SWAP1 JUMPDEST DUP2 SLOAD DUP2 MSTORE SWAP1 PUSH1 0x1 ADD SWAP1 PUSH1 0x20 ADD DUP1 DUP4 GT PUSH2 0x34D JUMPI DUP3 SWAP1 SUB PUSH1 0x1F AND DUP3 ADD SWAP2 JUMPDEST POP POP POP POP POP DUP2 MSTORE PUSH1 0x20 ADD PUSH1 0x1 DUP3 ADD SLOAD DUP2 MSTORE PUSH1 0x20 ADD PUSH1 0x2 DUP3 ADD PUSH0 SWAP1 SLOAD SWAP1 PUSH2 0x100 EXP SWAP1 DIV PUSH3 0xFFFFFF AND PUSH3 0xFFFFFF AND PUSH3 0xFFFFFF AND DUP2 MSTORE POP POP SWAP1 POP SWAP2 SWAP1 POP JUMP JUMPDEST PUSH1 0x60 PUSH1 0x1 DUP1 SLOAD PUSH2 0x3B5 SWAP1 PUSH2 0xB89 JUMP JUMPDEST DUP1 PUSH1 0x1F ADD PUSH1 0x20 DUP1 SWAP2 DIV MUL PUSH1 0x20 ADD PUSH1 0x40 MLOAD SWAP1 DUP2 ADD PUSH1 0x40 MSTORE DUP1 SWAP3 SWAP2 SWAP1 DUP2 DUP2 MSTORE PUSH1 0x20 ADD DUP3 DUP1 SLOAD PUSH2 0x3E1 SWAP1 PUSH2 0xB89 JUMP JUMPDEST DUP1 ISZERO PUSH2 0x42C JUMPI DUP1 PUSH1 0x1F LT PUSH2 0x403 JUMPI PUSH2 0x100 DUP1 DUP4 SLOAD DIV MUL DUP4 MSTORE SWAP2 PUSH1 0x20 ADD SWAP2 PUSH2 0x42C JUMP JUMPDEST DUP3 ADD SWAP2 SWAP1 PUSH0 MSTORE PUSH1 0x20 PUSH0 KECCAK256 SWAP1 JUMPDEST DUP2 SLOAD DUP2 MSTORE SWAP1 PUSH1 0x1 ADD SWAP1 PUSH1 0x20 ADD DUP1 DUP4 GT PUSH2 0x40F JUMPI DUP3 SWAP1 SUB PUSH1 0x1F AND DUP3 ADD SWAP2 JUMPDEST POP POP POP POP POP SWAP1 POP SWAP1 JUMP JUMPDEST PUSH0 PUSH2 0x43F PUSH2 0x61E JUMP JUMPDEST SWAP1 POP PUSH0 PUSH20 0xFFFFFFFFFFFFFFFFFFFFFFFFFFFFFFFFFFFFFFFF AND DUP2 PUSH20 0xFFFFFFFFFFFFFFFFFFFFFFFFFFFFFFFFFFFFFFFF AND SUB PUSH2 0x4B0 JUMPI PUSH20 0xFFFFFFFFFFFFFFFFFFFFFFFFFFFFFFFFFFFFFFFF PUSH32 0xB53127684A568B3173AE13B9F8A6016E243E63B6E8EE1178D6A717850B5D6103 SSTORE PUSH2 0x4E8 JUMP JUMPDEST DUP1 PUSH20 0xFFFFFFFFFFFFFFFFFFFFFFFFFFFFFFFFFFFFFFFF AND CALLER PUSH20 0xFFFFFFFFFFFFFFFFFFFFFFFFFFFFFFFFFFFFFFFF AND EQ PUSH2 0x4E7 JUMPI PUSH0 DUP1 REVERT JUMPDEST JUMPDEST DUP2 PUSH1 0x1 SWAP1 DUP2 PUSH2 0x4F7 SWAP2 SWAP1 PUSH2 0xDBE JUMP JUMPDEST POP POP POP JUMP JUMPDEST PUSH0 PUSH1 0x1 DUP5 DUP5 PUSH1 0x40 MLOAD PUSH1 0x20 ADD PUSH2 0x513 SWAP4 SWAP3 SWAP2 SWAP1 PUSH2 0xF4D JUMP JUMPDEST PUSH1 0x40 MLOAD PUSH1 0x20 DUP2 DUP4 SUB SUB DUP2 MSTORE SWAP1 PUSH1 0x40 MSTORE SWAP1 POP PUSH1 0x40 MLOAD DUP1 PUSH1 0x60 ADD PUSH1 0x40 MSTORE DUP1 DUP3 DUP2 MSTORE PUSH1 0x20 ADD TIMESTAMP DUP2 MSTORE PUSH1 0x20 ADD DUP4 PUSH3 0xFFFFFF AND DUP2 MSTORE POP PUSH0 DUP1 DUP8 PUSH20 0xFFFFFFFFFFFFFFFFFFFFFFFFFFFFFFFFFFFFFFFF AND PUSH20 0xFFFFFFFFFFFFFFFFFFFFFFFFFFFFFFFFFFFFFFFF AND DUP2 MSTORE PUSH1 0x20 ADD SWAP1 DUP2 MSTORE PUSH1 0x20 ADD PUSH0 KECCAK256 PUSH0 DUP3 ADD MLOAD DUP2 PUSH0 ADD SWAP1 DUP2 PUSH2 0x593 SWAP2 SWAP1 PUSH2 0xDBE JUMP JUMPDEST POP PUSH1 0x20 DUP3 ADD MLOAD DUP2 PUSH1 0x1 ADD SSTORE PUSH1 0x40 DUP3 ADD MLOAD DUP2 PUSH1 0x2 ADD PUSH0 PUSH2 0x100 EXP DUP2 SLOAD DUP2 PUSH3 0xFFFFFF MUL NOT AND SWAP1 DUP4 PUSH3 0xFFFFFF AND MUL OR SWAP1 SSTORE POP SWAP1 POP POP DUP5 PUSH20 0xFFFFFFFFFFFFFFFFFFFFFFFFFFFFFFFFFFFFFFFF AND PUSH32 0x4650083CDD22F274F233C0AE8B1E5A23037CED29923011D703349CDEEFACE1AF TIMESTAMP DUP4 DUP6 PUSH1 0x40 MLOAD PUSH2 0x60F SWAP4 SWAP3 SWAP2 SWAP1 PUSH2 0xF90 JUMP JUMPDEST PUSH1 0x40 MLOAD DUP1 SWAP2 SUB SWAP1 LOG2 POP POP POP POP POP JUMP JUMPDEST PUSH0 PUSH32 0xB53127684A568B3173AE13B9F8A6016E243E63B6E8EE1178D6A717850B5D6103 SLOAD SWAP1 POP SWAP1 JUMP JUMPDEST PUSH1 0x40 MLOAD DUP1 PUSH1 0x60 ADD PUSH1 0x40 MSTORE DUP1 PUSH1 0x60 DUP2 MSTORE PUSH1 0x20 ADD PUSH0 DUP2 MSTORE PUSH1 0x20 ADD PUSH0 PUSH3 0xFFFFFF AND DUP2 MSTORE POP SWAP1 JUMP JUMPDEST PUSH0 PUSH1 0x40 MLOAD SWAP1 POP SWAP1 JUMP JUMPDEST PUSH0 DUP1 REVERT JUMPDEST PUSH0 DUP1 REVERT JUMPDEST PUSH0 PUSH20 0xFFFFFFFFFFFFFFFFFFFFFFFFFFFFFFFFFFFFFFFF DUP3 AND SWAP1 POP SWAP2 SWAP1 POP JUMP JUMPDEST PUSH0 PUSH2 0x6A4 DUP3 PUSH2 0x67B JUMP JUMPDEST SWAP1 POP SWAP2 SWAP1 POP JUMP JUMPDEST PUSH2 0x6B4 DUP2 PUSH2 0x69A JUMP JUMPDEST DUP2 EQ PUSH2 0x6BE JUMPI PUSH0 DUP1 REVERT JUMPDEST POP JUMP JUMPDEST PUSH0 DUP2 CALLDATALOAD SWAP1 POP PUSH2 0x6CF DUP2 PUSH2 0x6AB JUMP JUMPDEST SWAP3 SWAP2 POP POP JUMP JUMPDEST PUSH0 PUSH1 0x20 DUP3 DUP5 SUB SLT ISZERO PUSH2 0x6EA JUMPI PUSH2 0x6E9 PUSH2 0x673 JUMP JUMPDEST JUMPDEST PUSH0 PUSH2 0x6F7 DUP5 DUP3 DUP6 ADD PUSH2 0x6C1 JUMP JUMPDEST SWAP2 POP POP SWAP3 SWAP2 POP POP JUMP JUMPDEST PUSH0 DUP2 MLOAD SWAP1 POP SWAP2 SWAP1 POP JUMP JUMPDEST PUSH0 DUP3 DUP3 MSTORE PUSH1 0x20 DUP3 ADD SWAP1 POP SWAP3 SWAP2 POP POP JUMP JUMPDEST PUSH0 JUMPDEST DUP4 DUP2 LT ISZERO PUSH2 0x737 JUMPI DUP1 DUP3 ADD MLOAD DUP2 DUP5 ADD MSTORE PUSH1 0x20 DUP2 ADD SWAP1 POP PUSH2 0x71C JUMP JUMPDEST PUSH0 DUP5 DUP5 ADD MSTORE POP POP POP POP JUMP JUMPDEST PUSH0 PUSH1 0x1F NOT PUSH1 0x1F DUP4 ADD AND SWAP1 POP SWAP2 SWAP1 POP JUMP JUMPDEST PUSH0 PUSH2 0x75C DUP3 PUSH2 0x700 JUMP JUMPDEST PUSH2 0x766 DUP2 DUP6 PUSH2 0x70A JUMP JUMPDEST SWAP4 POP PUSH2 0x776 DUP2 DUP6 PUSH1 0x20 DUP7 ADD PUSH2 0x71A JUMP JUMPDEST PUSH2 0x77F DUP2 PUSH2 0x742 JUMP JUMPDEST DUP5 ADD SWAP2 POP POP SWAP3 SWAP2 POP POP JUMP JUMPDEST PUSH0 PUSH1 0x20 DUP3 ADD SWAP1 POP DUP2 DUP2 SUB PUSH0 DUP4 ADD MSTORE PUSH2 0x7A2 DUP2 DUP5 PUSH2 0x752 JUMP JUMPDEST SWAP1 POP SWAP3 SWAP2 POP POP JUMP JUMPDEST PUSH0 DUP1 REVERT JUMPDEST PUSH0 DUP1 REVERT JUMPDEST PUSH0 DUP1 REVERT JUMPDEST PUSH0 DUP1 DUP4 PUSH1 0x1F DUP5 ADD SLT PUSH2 0x7CB JUMPI PUSH2 0x7CA PUSH2 0x7AA JUMP JUMPDEST JUMPDEST DUP3 CALLDATALOAD SWAP1 POP PUSH8 0xFFFFFFFFFFFFFFFF DUP2 GT ISZERO PUSH2 0x7E8 JUMPI PUSH2 0x7E7 PUSH2 0x7AE JUMP JUMPDEST JUMPDEST PUSH1 0x20 DUP4 ADD SWAP2 POP DUP4 PUSH1 0x1 DUP3 MUL DUP4 ADD GT ISZERO PUSH2 0x804 JUMPI PUSH2 0x803 PUSH2 0x7B2 JUMP JUMPDEST JUMPDEST SWAP3 POP SWAP3 SWAP1 POP JUMP JUMPDEST PUSH0 PUSH3 0xFFFFFF DUP3 AND SWAP1 POP SWAP2 SWAP1 POP JUMP JUMPDEST PUSH2 0x822 DUP2 PUSH2 0x80B JUMP JUMPDEST DUP2 EQ PUSH2 0x82C JUMPI PUSH0 DUP1 REVERT JUMPDEST POP JUMP JUMPDEST PUSH0 DUP2 CALLDATALOAD SWAP1 POP PUSH2 0x83D DUP2 PUSH2 0x819 JUMP JUMPDEST SWAP3 SWAP2 POP POP JUMP JUMPDEST PUSH0 DUP1 PUSH0 DUP1 PUSH1 0x60 DUP6 DUP8 SUB SLT ISZERO PUSH2 0x85B JUMPI PUSH2 0x85A PUSH2 0x673 JUMP JUMPDEST JUMPDEST PUSH0 PUSH2 0x868 DUP8 DUP3 DUP9 ADD PUSH2 0x6C1 JUMP JUMPDEST SWAP5 POP POP PUSH1 0x20 DUP6 ADD CALLDATALOAD PUSH8 0xFFFFFFFFFFFFFFFF DUP2 GT ISZERO PUSH2 0x889 JUMPI PUSH2 0x888 PUSH2 0x677 JUMP JUMPDEST JUMPDEST PUSH2 0x895 DUP8 DUP3 DUP9 ADD PUSH2 0x7B6 JUMP JUMPDEST SWAP4 POP SWAP4 POP POP PUSH1 0x40 PUSH2 0x8A8 DUP8 DUP3 DUP9 ADD PUSH2 0x82F JUMP JUMPDEST SWAP2 POP POP SWAP3 SWAP6 SWAP2 SWAP5 POP SWAP3 POP JUMP JUMPDEST PUSH0 DUP1 PUSH0 PUSH1 0x40 DUP5 DUP7 SUB SLT ISZERO PUSH2 0x8CB JUMPI PUSH2 0x8CA PUSH2 0x673 JUMP JUMPDEST JUMPDEST PUSH0 DUP5 ADD CALLDATALOAD PUSH8 0xFFFFFFFFFFFFFFFF DUP2 GT ISZERO PUSH2 0x8E8 JUMPI PUSH2 0x8E7 PUSH2 0x677 JUMP JUMPDEST JUMPDEST PUSH2 0x8F4 DUP7 DUP3 DUP8 ADD PUSH2 0x7B6 JUMP JUMPDEST SWAP4 POP SWAP4 POP POP PUSH1 0x20 PUSH2 0x907 DUP7 DUP3 DUP8 ADD PUSH2 0x82F JUMP JUMPDEST SWAP2 POP POP SWAP3 POP SWAP3 POP SWAP3 JUMP JUMPDEST PUSH0 DUP3 DUP3 MSTORE PUSH1 0x20 DUP3 ADD SWAP1 POP SWAP3 SWAP2 POP POP JUMP JUMPDEST PUSH0 PUSH2 0x92B DUP3 PUSH2 0x700 JUMP JUMPDEST PUSH2 0x935 DUP2 DUP6 PUSH2 0x911 JUMP JUMPDEST SWAP4 POP PUSH2 0x945 DUP2 DUP6 PUSH1 0x20 DUP7 ADD PUSH2 0x71A JUMP JUMPDEST PUSH2 0x94E DUP2 PUSH2 0x742 JUMP JUMPDEST DUP5 ADD SWAP2 POP POP SWAP3 SWAP2 POP POP JUMP JUMPDEST PUSH0 DUP2 SWAP1 POP SWAP2 SWAP1 POP JUMP JUMPDEST PUSH2 0x96B DUP2 PUSH2 0x959 JUMP JUMPDEST DUP3 MSTORE POP POP JUMP JUMPDEST PUSH2 0x97A DUP2 PUSH2 0x80B JUMP JUMPDEST DUP3 MSTORE POP POP JUMP JUMPDEST PUSH0 PUSH1 0x60 DUP4 ADD PUSH0 DUP4 ADD MLOAD DUP5 DUP3 SUB PUSH0 DUP7 ADD MSTORE PUSH2 0x99A DUP3 DUP3 PUSH2 0x921 JUMP JUMPDEST SWAP2 POP POP PUSH1 0x20 DUP4 ADD MLOAD PUSH2 0x9AF PUSH1 0x20 DUP7 ADD DUP3 PUSH2 0x962 JUMP JUMPDEST POP PUSH1 0x40 DUP4 ADD MLOAD PUSH2 0x9C2 PUSH1 0x40 DUP7 ADD DUP3 PUSH2 0x971 JUMP JUMPDEST POP DUP1 SWAP2 POP POP SWAP3 SWAP2 POP POP JUMP JUMPDEST PUSH0 PUSH1 0x20 DUP3 ADD SWAP1 POP DUP2 DUP2 SUB PUSH0 DUP4 ADD MSTORE PUSH2 0x9E5 DUP2 DUP5 PUSH2 0x980 JUMP JUMPDEST SWAP1 POP SWAP3 SWAP2 POP POP JUMP JUMPDEST PUSH0 DUP1 REVERT JUMPDEST PUSH32 0x4E487B7100000000000000000000000000000000000000000000000000000000 PUSH0 MSTORE PUSH1 0x41 PUSH1 0x4 MSTORE PUSH1 0x24 PUSH0 REVERT JUMPDEST PUSH2 0xA27 DUP3 PUSH2 0x742 JUMP JUMPDEST DUP2 ADD DUP2 DUP2 LT PUSH8 0xFFFFFFFFFFFFFFFF DUP3 GT OR ISZERO PUSH2 0xA46 JUMPI PUSH2 0xA45 PUSH2 0x9F1 JUMP JUMPDEST JUMPDEST DUP1 PUSH1 0x40 MSTORE POP POP POP JUMP JUMPDEST PUSH0 PUSH2 0xA58 PUSH2 0x66A JUMP JUMPDEST SWAP1 POP PUSH2 0xA64 DUP3 DUP3 PUSH2 0xA1E JUMP JUMPDEST SWAP2 SWAP1 POP JUMP JUMPDEST PUSH0 PUSH8 0xFFFFFFFFFFFFFFFF DUP3 GT ISZERO PUSH2 0xA83 JUMPI PUSH2 0xA82 PUSH2 0x9F1 JUMP JUMPDEST JUMPDEST PUSH2 0xA8C DUP3 PUSH2 0x742 JUMP JUMPDEST SWAP1 POP PUSH1 0x20 DUP2 ADD SWAP1 POP SWAP2 SWAP1 POP JUMP JUMPDEST DUP3 DUP2 DUP4 CALLDATACOPY PUSH0 DUP4 DUP4 ADD MSTORE POP POP POP JUMP JUMPDEST PUSH0 PUSH2 0xAB9 PUSH2 0xAB4 DUP5 PUSH2 0xA69 JUMP JUMPDEST PUSH2 0xA4F JUMP JUMPDEST SWAP1 POP DUP3 DUP2 MSTORE PUSH1 0x20 DUP2 ADD DUP5 DUP5 DUP5 ADD GT ISZERO PUSH2 0xAD5 JUMPI PUSH2 0xAD4 PUSH2 0x9ED JUMP JUMPDEST JUMPDEST PUSH2 0xAE0 DUP5 DUP3 DUP6 PUSH2 0xA99 JUMP JUMPDEST POP SWAP4 SWAP3 POP POP POP JUMP JUMPDEST PUSH0 DUP3 PUSH1 0x1F DUP4 ADD SLT PUSH2 0xAFC JUMPI PUSH2 0xAFB PUSH2 0x7AA JUMP JUMPDEST JUMPDEST DUP2 CALLDATALOAD PUSH2 0xB0C DUP5 DUP3 PUSH1 0x20 DUP7 ADD PUSH2 0xAA7 JUMP JUMPDEST SWAP2 POP POP SWAP3 SWAP2 POP POP JUMP JUMPDEST PUSH0 PUSH1 0x20 DUP3 DUP5 SUB SLT ISZERO PUSH2 0xB2A JUMPI PUSH2 0xB29 PUSH2 0x673 JUMP JUMPDEST JUMPDEST PUSH0 DUP3 ADD CALLDATALOAD PUSH8 0xFFFFFFFFFFFFFFFF DUP2 GT ISZERO PUSH2 0xB47 JUMPI PUSH2 0xB46 PUSH2 0x677 JUMP JUMPDEST JUMPDEST PUSH2 0xB53 DUP5 DUP3 DUP6 ADD PUSH2 0xAE8 JUMP JUMPDEST SWAP2 POP POP SWAP3 SWAP2 POP POP JUMP JUMPDEST PUSH32 0x4E487B7100000000000000000000000000000000000000000000000000000000 PUSH0 MSTORE PUSH1 0x22 PUSH1 0x4 MSTORE PUSH1 0x24 PUSH0 REVERT JUMPDEST PUSH0 PUSH1 0x2 DUP3 DIV SWAP1 POP PUSH1 0x1 DUP3 AND DUP1 PUSH2 0xBA0 JUMPI PUSH1 0x7F DUP3 AND SWAP2 POP JUMPDEST PUSH1 0x20 DUP3 LT DUP2 SUB PUSH2 0xBB3 JUMPI PUSH2 0xBB2 PUSH2 0xB5C JUMP JUMPDEST JUMPDEST POP SWAP2 SWAP1 POP JUMP JUMPDEST PUSH32 0x4E4F545F415554484F52495A4544000000000000000000000000000000000000 PUSH0 DUP3 ADD MSTORE POP JUMP JUMPDEST PUSH0 PUSH2 0xBED PUSH1 0xE DUP4 PUSH2 0x70A JUMP JUMPDEST SWAP2 POP PUSH2 0xBF8 DUP3 PUSH2 0xBB9 JUMP JUMPDEST PUSH1 0x20 DUP3 ADD SWAP1 POP SWAP2 SWAP1 POP JUMP JUMPDEST PUSH0 PUSH1 0x20 DUP3 ADD SWAP1 POP DUP2 DUP2 SUB PUSH0 DUP4 ADD MSTORE PUSH2 0xC1A DUP2 PUSH2 0xBE1 JUMP JUMPDEST SWAP1 POP SWAP2 SWAP1 POP JUMP JUMPDEST PUSH0 DUP2 SWAP1 POP DUP2 PUSH0 MSTORE PUSH1 0x20 PUSH0 KECCAK256 SWAP1 POP SWAP2 SWAP1 POP JUMP JUMPDEST PUSH0 PUSH1 0x20 PUSH1 0x1F DUP4 ADD DIV SWAP1 POP SWAP2 SWAP1 POP JUMP JUMPDEST PUSH0 DUP3 DUP3 SHL SWAP1 POP SWAP3 SWAP2 POP POP JUMP JUMPDEST PUSH0 PUSH1 0x8 DUP4 MUL PUSH2 0xC7D PUSH32 0xFFFFFFFFFFFFFFFFFFFFFFFFFFFFFFFFFFFFFFFFFFFFFFFFFFFFFFFFFFFFFFFF DUP3 PUSH2 0xC42 JUMP JUMPDEST PUSH2 0xC87 DUP7 DUP4 PUSH2 0xC42 JUMP JUMPDEST SWAP6 POP DUP1 NOT DUP5 AND SWAP4 POP DUP1 DUP7 AND DUP5 OR SWAP3 POP POP POP SWAP4 SWAP3 POP POP POP JUMP JUMPDEST PUSH0 DUP2 SWAP1 POP SWAP2 SWAP1 POP JUMP JUMPDEST PUSH0 PUSH2 0xCC2 PUSH2 0xCBD PUSH2 0xCB8 DUP5 PUSH2 0x959 JUMP JUMPDEST PUSH2 0xC9F JUMP JUMPDEST PUSH2 0x959 JUMP JUMPDEST SWAP1 POP SWAP2 SWAP1 POP JUMP JUMPDEST PUSH0 DUP2 SWAP1 POP SWAP2 SWAP1 POP JUMP JUMPDEST PUSH2 0xCDB DUP4 PUSH2 0xCA8 JUMP JUMPDEST PUSH2 0xCEF PUSH2 0xCE7 DUP3 PUSH2 0xCC9 JUMP JUMPDEST DUP5 DUP5 SLOAD PUSH2 0xC4E JUMP JUMPDEST DUP3 SSTORE POP POP POP POP JUMP JUMPDEST PUSH0 SWAP1 JUMP JUMPDEST PUSH2 0xD03 PUSH2 0xCF7 JUMP JUMPDEST PUSH2 0xD0E DUP2 DUP5 DUP5 PUSH2 0xCD2 JUMP JUMPDEST POP POP POP JUMP JUMPDEST JUMPDEST DUP2 DUP2 LT ISZERO PUSH2 0xD31 JUMPI PUSH2 0xD26 PUSH0 DUP3 PUSH2 0xCFB JUMP JUMPDEST PUSH1 0x1 DUP2 ADD SWAP1 POP PUSH2 0xD14 JUMP JUMPDEST POP POP JUMP JUMPDEST PUSH1 0x1F DUP3 GT ISZERO PUSH2 0xD76 JUMPI PUSH2 0xD47 DUP2 PUSH2 0xC21 JUMP JUMPDEST PUSH2 0xD50 DUP5 PUSH2 0xC33 JUMP JUMPDEST DUP2 ADD PUSH1 0x20 DUP6 LT ISZERO PUSH2 0xD5F JUMPI DUP2 SWAP1 POP JUMPDEST PUSH2 0xD73 PUSH2 0xD6B DUP6 PUSH2 0xC33 JUMP JUMPDEST DUP4 ADD DUP3 PUSH2 0xD13 JUMP JUMPDEST POP POP JUMPDEST POP POP POP JUMP JUMPDEST PUSH0 DUP3 DUP3 SHR SWAP1 POP SWAP3 SWAP2 POP POP JUMP JUMPDEST PUSH0 PUSH2 0xD96 PUSH0 NOT DUP5 PUSH1 0x8 MUL PUSH2 0xD7B JUMP JUMPDEST NOT DUP1 DUP4 AND SWAP2 POP POP SWAP3 SWAP2 POP POP JUMP JUMPDEST PUSH0 PUSH2 0xDAE DUP4 DUP4 PUSH2 0xD87 JUMP JUMPDEST SWAP2 POP DUP3 PUSH1 0x2 MUL DUP3 OR SWAP1 POP SWAP3 SWAP2 POP POP JUMP JUMPDEST PUSH2 0xDC7 DUP3 PUSH2 0x700 JUMP JUMPDEST PUSH8 0xFFFFFFFFFFFFFFFF DUP2 GT ISZERO PUSH2 0xDE0 JUMPI PUSH2 0xDDF PUSH2 0x9F1 JUMP JUMPDEST JUMPDEST PUSH2 0xDEA DUP3 SLOAD PUSH2 0xB89 JUMP JUMPDEST PUSH2 0xDF5 DUP3 DUP3 DUP6 PUSH2 0xD35 JUMP JUMPDEST PUSH0 PUSH1 0x20 SWAP1 POP PUSH1 0x1F DUP4 GT PUSH1 0x1 DUP2 EQ PUSH2 0xE26 JUMPI PUSH0 DUP5 ISZERO PUSH2 0xE14 JUMPI DUP3 DUP8 ADD MLOAD SWAP1 POP JUMPDEST PUSH2 0xE1E DUP6 DUP3 PUSH2 0xDA3 JUMP JUMPDEST DUP7 SSTORE POP PUSH2 0xE85 JUMP JUMPDEST PUSH1 0x1F NOT DUP5 AND PUSH2 0xE34 DUP7 PUSH2 0xC21 JUMP JUMPDEST PUSH0 JUMPDEST DUP3 DUP2 LT ISZERO PUSH2 0xE5B JUMPI DUP5 DUP10 ADD MLOAD DUP3 SSTORE PUSH1 0x1 DUP3 ADD SWAP2 POP PUSH1 0x20 DUP6 ADD SWAP5 POP PUSH1 0x20 DUP2 ADD SWAP1 POP PUSH2 0xE36 JUMP JUMPDEST DUP7 DUP4 LT ISZERO PUSH2 0xE78 JUMPI DUP5 DUP10 ADD MLOAD PUSH2 0xE74 PUSH1 0x1F DUP10 AND DUP3 PUSH2 0xD87 JUMP JUMPDEST DUP4 SSTORE POP JUMPDEST PUSH1 0x1 PUSH1 0x2 DUP9 MUL ADD DUP9 SSTORE POP POP POP JUMPDEST POP POP POP POP POP POP JUMP JUMPDEST PUSH0 DUP2 SWAP1 POP SWAP3 SWAP2 POP POP JUMP JUMPDEST PUSH0 DUP2 SWAP1 POP DUP2 PUSH0 MSTORE PUSH1 0x20 PUSH0 KECCAK256 SWAP1 POP SWAP2 SWAP1 POP JUMP JUMPDEST PUSH0 DUP2 SLOAD PUSH2 0xEB5 DUP2 PUSH2 0xB89 JUMP JUMPDEST PUSH2 0xEBF DUP2 DUP7 PUSH2 0xE8D JUMP JUMPDEST SWAP5 POP PUSH1 0x1 DUP3 AND PUSH0 DUP2 EQ PUSH2 0xED9 JUMPI PUSH1 0x1 DUP2 EQ PUSH2 0xEEE JUMPI PUSH2 0xF20 JUMP JUMPDEST PUSH1 0xFF NOT DUP4 AND DUP7 MSTORE DUP2 ISZERO ISZERO DUP3 MUL DUP7 ADD SWAP4 POP PUSH2 0xF20 JUMP JUMPDEST PUSH2 0xEF7 DUP6 PUSH2 0xE97 JUMP JUMPDEST PUSH0 JUMPDEST DUP4 DUP2 LT ISZERO PUSH2 0xF18 JUMPI DUP2 SLOAD DUP2 DUP10 ADD MSTORE PUSH1 0x1 DUP3 ADD SWAP2 POP PUSH1 0x20 DUP2 ADD SWAP1 POP PUSH2 0xEF9 JUMP JUMPDEST DUP4 DUP9 ADD SWAP6 POP POP POP JUMPDEST POP POP POP SWAP3 SWAP2 POP POP JUMP JUMPDEST PUSH0 PUSH2 0xF34 DUP4 DUP6 PUSH2 0xE8D JUMP JUMPDEST SWAP4 POP PUSH2 0xF41 DUP4 DUP6 DUP5 PUSH2 0xA99 JUMP JUMPDEST DUP3 DUP5 ADD SWAP1 POP SWAP4 SWAP3 POP POP POP JUMP JUMPDEST PUSH0 PUSH2 0xF58 DUP3 DUP7 PUSH2 0xEA9 JUMP JUMPDEST SWAP2 POP PUSH2 0xF65 DUP3 DUP5 DUP7 PUSH2 0xF29 JUMP JUMPDEST SWAP2 POP DUP2 SWAP1 POP SWAP5 SWAP4 POP POP POP POP JUMP JUMPDEST PUSH2 0xF7B DUP2 PUSH2 0x959 JUMP JUMPDEST DUP3 MSTORE POP POP JUMP JUMPDEST PUSH2 0xF8A DUP2 PUSH2 0x80B JUMP JUMPDEST DUP3 MSTORE POP POP JUMP JUMPDEST PUSH0 PUSH1 0x60 DUP3 ADD SWAP1 POP PUSH2 0xFA3 PUSH0 DUP4 ADD DUP7 PUSH2 0xF72 JUMP JUMPDEST DUP2 DUP2 SUB PUSH1 0x20 DUP4 ADD MSTORE PUSH2 0xFB5 DUP2 DUP6 PUSH2 0x752 JUMP JUMPDEST SWAP1 POP PUSH2 0xFC4 PUSH1 0x40 DUP4 ADD DUP5 PUSH2 0xF81 JUMP JUMPDEST SWAP5 SWAP4 POP POP POP POP JUMP INVALID LOG2 PUSH5 0x6970667358 0x22 SLT KECCAK256 DUP12 0xC4 0xC7 0xE LOG2 SWAP16 0xC9 DUP8 0xBF XOR 0xD 0xAD 0xDD POP JUMP DUP10 PUSH12 0x2252EA74B980C9081A02A766 CHAINID XOR 0x49 PUSH5 0x736F6C6343 STOP ADDMOD EQ STOP CALLER "
    },
    "gasEstimates": {
      "creation": {
        "codeDepositCost": "819600",
        "executionCost": "infinite",
        "totalCost": "infinite"
      },
      "external": {
        "lastGreetingOf(address)": "infinite",
        "messages(address)": "infinite",
        "postUpgrade(string)": "infinite",
        "prefix()": "infinite",
        "setMessage(string,uint24)": "infinite",
        "setMessageFor(address,string,uint24)": "infinite"
      },
      "internal": {
        "_setMessageFor(address,string calldata,uint24)": "infinite"
      }
    },
    "methodIdentifiers": {
      "lastGreetingOf(address)": "03433b8e",
      "messages(address)": "5fdd59f8",
      "postUpgrade(string)": "b1441ce6",
      "prefix()": "75dadb32",
      "setMessage(string,uint24)": "4c2dd808",
      "setMessageFor(address,string,uint24)": "334c9bba"
    }
  },
  "storageLayout": {
    "storage": [
      {
        "astId": 78,
        "contract": "src/GreetingsRegistry.sol:GreetingsRegistry",
        "label": "_messages",
        "offset": 0,
        "slot": "0",
        "type": "t_mapping(t_address,t_struct(Message)73_storage)"
      },
      {
        "astId": 80,
        "contract": "src/GreetingsRegistry.sol:GreetingsRegistry",
        "label": "_prefix",
        "offset": 0,
        "slot": "1",
        "type": "t_string_storage"
      }
    ],
    "types": {
      "t_address": {
        "encoding": "inplace",
        "label": "address",
        "numberOfBytes": "20"
      },
      "t_mapping(t_address,t_struct(Message)73_storage)": {
        "encoding": "mapping",
        "key": "t_address",
        "label": "mapping(address => struct GreetingsRegistry.Message)",
        "numberOfBytes": "32",
        "value": "t_struct(Message)73_storage"
      },
      "t_string_storage": {
        "encoding": "bytes",
        "label": "string",
        "numberOfBytes": "32"
      },
      "t_struct(Message)73_storage": {
        "encoding": "inplace",
        "label": "struct GreetingsRegistry.Message",
        "members": [
          {
            "astId": 68,
            "contract": "src/GreetingsRegistry.sol:GreetingsRegistry",
            "label": "content",
            "offset": 0,
            "slot": "0",
            "type": "t_string_storage"
          },
          {
            "astId": 70,
            "contract": "src/GreetingsRegistry.sol:GreetingsRegistry",
            "label": "timestamp",
            "offset": 0,
            "slot": "1",
            "type": "t_uint256"
          },
          {
            "astId": 72,
            "contract": "src/GreetingsRegistry.sol:GreetingsRegistry",
            "label": "dayTimeInSeconds",
            "offset": 0,
            "slot": "2",
            "type": "t_uint24"
          }
        ],
        "numberOfBytes": "96"
      },
      "t_uint24": {
        "encoding": "inplace",
        "label": "uint24",
        "numberOfBytes": "3"
      },
      "t_uint256": {
        "encoding": "inplace",
        "label": "uint256",
        "numberOfBytes": "32"
      }
    }
  },
  "userdoc": {
    "events": {
      "MessageChanged(address,uint256,string,uint24)": {
        "notice": "emitted whenever a user set a new greeting to the world"
      }
    },
    "kind": "user",
    "methods": {
      "lastGreetingOf(address)": {
        "notice": "return the last greeting message from the given `user`."
      },
      "messages(address)": {
        "notice": "return the last message from the given `user`."
      },
      "prefix()": {
        "notice": "return the prefix that is appended to any new message."
      },
      "setMessage(string,uint24)": {
        "notice": "set a new message for `msg.sender`."
      },
      "setMessageFor(address,string,uint24)": {
        "notice": "set a new message for `msg.sender`."
      }
    },
    "notice": "a registry that let user send greetings to the world  It is used as a demo for jolly-roger,  a fully featured SDK to build entirely decentralised apps and games  It is inteded to be deployed via upgradeable proxy locally  to showcase the HCR (Hot Contract Replacement) capabilities of `hardhat-deploy`  but immutable on live networks.",
    "version": 1
  },
  "argsData": "0x000000000000000000000000b62f3c5c2e30de9d40529c7afb9d245ccb64243600000000000000000000000061c461ecc993aadeb7e4b47e96d1b8cc37314b2000000000000000000000000000000000000000000000000000000000000000600000000000000000000000000000000000000000000000000000000000000000",
  "nonce": "0x53",
  "txOrigin": "0x61c461ecc993aadeb7e4b47e96d1b8cc37314b20",
  "_format": "hh-sol-artifact-1"
}