{
  "address": "0x70e9541dadbe2a33a4df0cd75005a1868ec2ec8c",
  "abi": [
    {
      "inputs": [
        {
          "internalType": "string",
          "name": "initialPrefix",
          "type": "string"
        }
      ],
      "stateMutability": "nonpayable",
      "type": "constructor"
    },
    {
      "anonymous": false,
      "inputs": [
        {
          "indexed": true,
          "internalType": "address",
          "name": "user",
          "type": "address"
        },
        {
          "indexed": false,
          "internalType": "uint256",
          "name": "timestamp",
          "type": "uint256"
        },
        {
          "indexed": false,
          "internalType": "string",
          "name": "message",
          "type": "string"
        },
        {
          "indexed": false,
          "internalType": "uint24",
          "name": "dayTimeInSeconds",
          "type": "uint24"
        }
      ],
      "name": "MessageChanged",
      "type": "event"
    },
    {
      "inputs": [
        {
          "internalType": "address",
          "name": "user",
          "type": "address"
        }
      ],
      "name": "lastGreetingOf",
      "outputs": [
        {
          "internalType": "string",
          "name": "greeting",
          "type": "string"
        }
      ],
      "stateMutability": "view",
      "type": "function"
    },
    {
      "inputs": [
        {
          "internalType": "address",
          "name": "user",
          "type": "address"
        }
      ],
      "name": "messages",
      "outputs": [
        {
          "components": [
            {
              "internalType": "string",
              "name": "content",
              "type": "string"
            },
            {
              "internalType": "uint256",
              "name": "timestamp",
              "type": "uint256"
            },
            {
              "internalType": "uint24",
              "name": "dayTimeInSeconds",
              "type": "uint24"
            }
          ],
          "internalType": "struct GreetingsRegistry.Message",
          "name": "userMsg",
          "type": "tuple"
        }
      ],
      "stateMutability": "view",
      "type": "function"
    },
    {
      "inputs": [
        {
          "internalType": "string",
          "name": "initialPrefix",
          "type": "string"
        }
      ],
      "name": "postUpgrade",
      "outputs": [],
      "stateMutability": "nonpayable",
      "type": "function"
    },
    {
      "inputs": [],
      "name": "prefix",
      "outputs": [
        {
          "internalType": "string",
          "name": "value",
          "type": "string"
        }
      ],
      "stateMutability": "view",
      "type": "function"
    },
    {
      "inputs": [
        {
          "internalType": "string",
          "name": "message",
          "type": "string"
        },
        {
          "internalType": "uint24",
          "name": "dayTimeInSeconds",
          "type": "uint24"
        }
      ],
      "name": "setMessage",
      "outputs": [],
      "stateMutability": "nonpayable",
      "type": "function"
    },
    {
      "inputs": [
        {
          "internalType": "address",
          "name": "account",
          "type": "address"
        },
        {
          "internalType": "string",
          "name": "message",
          "type": "string"
        },
        {
          "internalType": "uint24",
          "name": "dayTimeInSeconds",
          "type": "uint24"
        }
      ],
      "name": "setMessageFor",
      "outputs": [],
      "stateMutability": "nonpayable",
      "type": "function"
    }
  ],
  "contractName": "GreetingsRegistry",
  "sourceName": "src/GreetingsRegistry.sol",
  "bytecode": "0x608060405234801562000010575f80fd5b5060405162001648380380620016488339818101604052810190620000369190620002ce565b62000047816200004e60201b60201c565b5062000638565b5f6200005f6200012160201b60201c565b90505f73ffffffffffffffffffffffffffffffffffffffff168173ffffffffffffffffffffffffffffffffffffffff1603620000d25773ffffffffffffffffffffffffffffffffffffffff7fb53127684a568b3173ae13b9f8a6016e243e63b6e8ee1178d6a717850b5d6103556200010b565b8073ffffffffffffffffffffffffffffffffffffffff163373ffffffffffffffffffffffffffffffffffffffff16146200010a575f80fd5b5b81600190816200011c919062000554565b505050565b5f7fb53127684a568b3173ae13b9f8a6016e243e63b6e8ee1178d6a717850b5d610354905090565b5f604051905090565b5f80fd5b5f80fd5b5f80fd5b5f80fd5b5f601f19601f8301169050919050565b7f4e487b71000000000000000000000000000000000000000000000000000000005f52604160045260245ffd5b620001aa8262000162565b810181811067ffffffffffffffff82111715620001cc57620001cb62000172565b5b80604052505050565b5f620001e062000149565b9050620001ee82826200019f565b919050565b5f67ffffffffffffffff82111562000210576200020f62000172565b5b6200021b8262000162565b9050602081019050919050565b5f5b83811015620002475780820151818401526020810190506200022a565b5f8484015250505050565b5f620002686200026284620001f3565b620001d5565b9050828152602081018484840111156200028757620002866200015e565b5b6200029484828562000228565b509392505050565b5f82601f830112620002b357620002b26200015a565b5b8151620002c584826020860162000252565b91505092915050565b5f60208284031215620002e657620002e562000152565b5b5f82015167ffffffffffffffff81111562000306576200030562000156565b5b62000314848285016200029c565b91505092915050565b5f81519050919050565b7f4e487b71000000000000000000000000000000000000000000000000000000005f52602260045260245ffd5b5f60028204905060018216806200036c57607f821691505b60208210810362000382576200038162000327565b5b50919050565b5f819050815f5260205f209050919050565b5f6020601f8301049050919050565b5f82821b905092915050565b5f60088302620003e67fffffffffffffffffffffffffffffffffffffffffffffffffffffffffffffffff82620003a9565b620003f28683620003a9565b95508019841693508086168417925050509392505050565b5f819050919050565b5f819050919050565b5f6200043c6200043662000430846200040a565b62000413565b6200040a565b9050919050565b5f819050919050565b62000457836200041c565b6200046f620004668262000443565b848454620003b5565b825550505050565b5f90565b6200048562000477565b620004928184846200044c565b505050565b5b81811015620004b957620004ad5f826200047b565b60018101905062000498565b5050565b601f8211156200050857620004d28162000388565b620004dd846200039a565b81016020851015620004ed578190505b62000505620004fc856200039a565b83018262000497565b50505b505050565b5f82821c905092915050565b5f6200052a5f19846008026200050d565b1980831691505092915050565b5f62000544838362000519565b9150826002028217905092915050565b6200055f826200031d565b67ffffffffffffffff8111156200057b576200057a62000172565b5b62000587825462000354565b62000594828285620004bd565b5f60209050601f831160018114620005ca575f8415620005b5578287015190505b620005c1858262000537565b86555062000630565b601f198416620005da8662000388565b5f5b828110156200060357848901518255600182019150602085019450602081019050620005dc565b868310156200062357848901516200061f601f89168262000519565b8355505b6001600288020188555050505b505050505050565b61100280620006465f395ff3fe608060405234801561000f575f80fd5b5060043610610060575f3560e01c806303433b8e14610064578063334c9bba146100945780634c2dd808146100b05780635fdd59f8146100cc57806375dadb32146100fc578063b1441ce61461011a575b5f80fd5b61007e600480360381019061007991906106d5565b610136565b60405161008b919061078a565b60405180910390f35b6100ae60048036038101906100a99190610843565b610204565b005b6100ca60048036038101906100c591906108b4565b610284565b005b6100e660048036038101906100e191906106d5565b610295565b6040516100f391906109cd565b60405180910390f35b6101046103a6565b604051610111919061078a565b60405180910390f35b610134600480360381019061012f9190610b15565b610436565b005b60605f808373ffffffffffffffffffffffffffffffffffffffff1673ffffffffffffffffffffffffffffffffffffffff1681526020019081526020015f205f01805461018190610b89565b80601f01602080910402602001604051908101604052809291908181526020018280546101ad90610b89565b80156101f85780601f106101cf576101008083540402835291602001916101f8565b820191905f5260205f20905b8154815290600101906020018083116101db57829003601f168201915b50505050509050919050565b8373ffffffffffffffffffffffffffffffffffffffff163373ffffffffffffffffffffffffffffffffffffffff1614610272576040517f08c379a000000000000000000000000000000000000000000000000000000000815260040161026990610c03565b60405180910390fd5b61027e848484846104fc565b50505050565b610290338484846104fc565b505050565b61029d610646565b5f808373ffffffffffffffffffffffffffffffffffffffff1673ffffffffffffffffffffffffffffffffffffffff1681526020019081526020015f206040518060600160405290815f820180546102f390610b89565b80601f016020809104026020016040519081016040528092919081815260200182805461031f90610b89565b801561036a5780601f106103415761010080835404028352916020019161036a565b820191905f5260205f20905b81548152906001019060200180831161034d57829003601f168201915b5050505050815260200160018201548152602001600282015f9054906101000a900462ffffff1662ffffff1662ffffff16815250509050919050565b6060600180546103b590610b89565b80601f01602080910402602001604051908101604052809291908181526020018280546103e190610b89565b801561042c5780601f106104035761010080835404028352916020019161042c565b820191905f5260205f20905b81548152906001019060200180831161040f57829003601f168201915b5050505050905090565b5f61043f61061e565b90505f73ffffffffffffffffffffffffffffffffffffffff168173ffffffffffffffffffffffffffffffffffffffff16036104b05773ffffffffffffffffffffffffffffffffffffffff7fb53127684a568b3173ae13b9f8a6016e243e63b6e8ee1178d6a717850b5d6103556104e8565b8073ffffffffffffffffffffffffffffffffffffffff163373ffffffffffffffffffffffffffffffffffffffff16146104e7575f80fd5b5b81600190816104f79190610dbe565b505050565b5f6001848460405160200161051393929190610f4d565b604051602081830303815290604052905060405180606001604052808281526020014281526020018362ffffff168152505f808773ffffffffffffffffffffffffffffffffffffffff1673ffffffffffffffffffffffffffffffffffffffff1681526020019081526020015f205f820151815f0190816105939190610dbe565b50602082015181600101556040820151816002015f6101000a81548162ffffff021916908362ffffff1602179055509050508473ffffffffffffffffffffffffffffffffffffffff167f4650083cdd22f274f233c0ae8b1e5a23037ced29923011d703349cdeeface1af42838560405161060f93929190610f90565b60405180910390a25050505050565b5f7fb53127684a568b3173ae13b9f8a6016e243e63b6e8ee1178d6a717850b5d610354905090565b6040518060600160405280606081526020015f81526020015f62ffffff1681525090565b5f604051905090565b5f80fd5b5f80fd5b5f73ffffffffffffffffffffffffffffffffffffffff82169050919050565b5f6106a48261067b565b9050919050565b6106b48161069a565b81146106be575f80fd5b50565b5f813590506106cf816106ab565b92915050565b5f602082840312156106ea576106e9610673565b5b5f6106f7848285016106c1565b91505092915050565b5f81519050919050565b5f82825260208201905092915050565b5f5b8381101561073757808201518184015260208101905061071c565b5f8484015250505050565b5f601f19601f8301169050919050565b5f61075c82610700565b610766818561070a565b935061077681856020860161071a565b61077f81610742565b840191505092915050565b5f6020820190508181035f8301526107a28184610752565b905092915050565b5f80fd5b5f80fd5b5f80fd5b5f8083601f8401126107cb576107ca6107aa565b5b8235905067ffffffffffffffff8111156107e8576107e76107ae565b5b602083019150836001820283011115610804576108036107b2565b5b9250929050565b5f62ffffff82169050919050565b6108228161080b565b811461082c575f80fd5b50565b5f8135905061083d81610819565b92915050565b5f805f806060858703121561085b5761085a610673565b5b5f610868878288016106c1565b945050602085013567ffffffffffffffff81111561088957610888610677565b5b610895878288016107b6565b935093505060406108a88782880161082f565b91505092959194509250565b5f805f604084860312156108cb576108ca610673565b5b5f84013567ffffffffffffffff8111156108e8576108e7610677565b5b6108f4868287016107b6565b935093505060206109078682870161082f565b9150509250925092565b5f82825260208201905092915050565b5f61092b82610700565b6109358185610911565b935061094581856020860161071a565b61094e81610742565b840191505092915050565b5f819050919050565b61096b81610959565b82525050565b61097a8161080b565b82525050565b5f606083015f8301518482035f86015261099a8282610921565b91505060208301516109af6020860182610962565b5060408301516109c26040860182610971565b508091505092915050565b5f6020820190508181035f8301526109e58184610980565b905092915050565b5f80fd5b7f4e487b71000000000000000000000000000000000000000000000000000000005f52604160045260245ffd5b610a2782610742565b810181811067ffffffffffffffff82111715610a4657610a456109f1565b5b80604052505050565b5f610a5861066a565b9050610a648282610a1e565b919050565b5f67ffffffffffffffff821115610a8357610a826109f1565b5b610a8c82610742565b9050602081019050919050565b828183375f83830152505050565b5f610ab9610ab484610a69565b610a4f565b905082815260208101848484011115610ad557610ad46109ed565b5b610ae0848285610a99565b509392505050565b5f82601f830112610afc57610afb6107aa565b5b8135610b0c848260208601610aa7565b91505092915050565b5f60208284031215610b2a57610b29610673565b5b5f82013567ffffffffffffffff811115610b4757610b46610677565b5b610b5384828501610ae8565b91505092915050565b7f4e487b71000000000000000000000000000000000000000000000000000000005f52602260045260245ffd5b5f6002820490506001821680610ba057607f821691505b602082108103610bb357610bb2610b5c565b5b50919050565b7f4e4f545f415554484f52495a45440000000000000000000000000000000000005f82015250565b5f610bed600e8361070a565b9150610bf882610bb9565b602082019050919050565b5f6020820190508181035f830152610c1a81610be1565b9050919050565b5f819050815f5260205f209050919050565b5f6020601f8301049050919050565b5f82821b905092915050565b5f60088302610c7d7fffffffffffffffffffffffffffffffffffffffffffffffffffffffffffffffff82610c42565b610c878683610c42565b95508019841693508086168417925050509392505050565b5f819050919050565b5f610cc2610cbd610cb884610959565b610c9f565b610959565b9050919050565b5f819050919050565b610cdb83610ca8565b610cef610ce782610cc9565b848454610c4e565b825550505050565b5f90565b610d03610cf7565b610d0e818484610cd2565b505050565b5b81811015610d3157610d265f82610cfb565b600181019050610d14565b5050565b601f821115610d7657610d4781610c21565b610d5084610c33565b81016020851015610d5f578190505b610d73610d6b85610c33565b830182610d13565b50505b505050565b5f82821c905092915050565b5f610d965f1984600802610d7b565b1980831691505092915050565b5f610dae8383610d87565b9150826002028217905092915050565b610dc782610700565b67ffffffffffffffff811115610de057610ddf6109f1565b5b610dea8254610b89565b610df5828285610d35565b5f60209050601f831160018114610e26575f8415610e14578287015190505b610e1e8582610da3565b865550610e85565b601f198416610e3486610c21565b5f5b82811015610e5b57848901518255600182019150602085019450602081019050610e36565b86831015610e785784890151610e74601f891682610d87565b8355505b6001600288020188555050505b505050505050565b5f81905092915050565b5f819050815f5260205f209050919050565b5f8154610eb581610b89565b610ebf8186610e8d565b9450600182165f8114610ed95760018114610eee57610f20565b60ff1983168652811515820286019350610f20565b610ef785610e97565b5f5b83811015610f1857815481890152600182019150602081019050610ef9565b838801955050505b50505092915050565b5f610f348385610e8d565b9350610f41838584610a99565b82840190509392505050565b5f610f588286610ea9565b9150610f65828486610f29565b9150819050949350505050565b610f7b81610959565b82525050565b610f8a8161080b565b82525050565b5f606082019050610fa35f830186610f72565b8181036020830152610fb58185610752565b9050610fc46040830184610f81565b94935050505056fea26469706673582212208bc4c70ea29fc987bf180daddd5056896b2252ea74b980c9081a02a76646184964736f6c63430008140033",
  "linkReferences": {},
  "deployedLinkReferences": {},
  "devdoc": {
    "events": {
      "MessageChanged(address,uint256,string,uint24)": {
        "details": "the timestamp is included to speedup indexing see: https://ethereum-magicians.org/t/proposal-for-adding-blocktimestamp-to-logs-object-returned-by-eth-getlogs-and-related-requests/11183",
        "params": {
          "dayTimeInSeconds": "the time of the day in seconds where 00:00 => 0 and 23:59 => 82859",
          "message": "the message content",
          "timestamp": "the time at which the message was recorded",
          "user": "the user that send the message"
        }
      }
    },
    "kind": "dev",
    "methods": {
      "constructor": {
        "details": "constructors",
        "params": {
          "initialPrefix": "the prefix that will be prepended to every user message goig forward"
        }
      },
      "lastGreetingOf(address)": {
        "params": {
          "user": "address of the user."
        },
        "returns": {
          "greeting": "the message's content send by the user."
        }
      },
      "messages(address)": {
        "params": {
          "user": "address of the user."
        },
        "returns": {
          "userMsg": "the message send by the user."
        }
      },
      "postUpgrade(string)": {
        "details": "called by the admin when the contract is deployed as a proxy",
        "params": {
          "initialPrefix": "the prefix that will be prepended to every user message goig forward"
        }
      },
      "prefix()": {
        "returns": {
          "value": "prefix string."
        }
      },
      "setMessage(string,uint24)": {
        "params": {
          "dayTimeInSeconds": "the time of the day in seconds the message was written.",
          "message": "the value to set as content."
        }
      },
      "setMessageFor(address,string,uint24)": {
        "params": {
          "account": "address which will have its greetings set",
          "dayTimeInSeconds": "the time of the day in seconds the message was written.",
          "message": "the value to set as content."
        }
      }
    },
    "version": 1
  },
  "evm": {
    "gasEstimates": {
      "creation": {
        "codeDepositCost": "819600",
        "executionCost": "infinite",
        "totalCost": "infinite"
      },
      "external": {
        "lastGreetingOf(address)": "infinite",
        "messages(address)": "infinite",
        "postUpgrade(string)": "infinite",
        "prefix()": "infinite",
        "setMessage(string,uint24)": "infinite",
        "setMessageFor(address,string,uint24)": "infinite"
      },
      "internal": {
        "_setMessageFor(address,string calldata,uint24)": "infinite"
      }
    }
  },
  "storageLayout": {
    "storage": [
      {
        "astId": 78,
        "contract": "src/GreetingsRegistry.sol:GreetingsRegistry",
        "label": "_messages",
        "offset": 0,
        "slot": "0",
        "type": "t_mapping(t_address,t_struct(Message)73_storage)"
      },
      {
        "astId": 80,
        "contract": "src/GreetingsRegistry.sol:GreetingsRegistry",
        "label": "_prefix",
        "offset": 0,
        "slot": "1",
        "type": "t_string_storage"
      }
    ],
    "types": {
      "t_address": {
        "encoding": "inplace",
        "label": "address",
        "numberOfBytes": "20"
      },
      "t_mapping(t_address,t_struct(Message)73_storage)": {
        "encoding": "mapping",
        "key": "t_address",
        "label": "mapping(address => struct GreetingsRegistry.Message)",
        "numberOfBytes": "32",
        "value": "t_struct(Message)73_storage"
      },
      "t_string_storage": {
        "encoding": "bytes",
        "label": "string",
        "numberOfBytes": "32"
      },
      "t_struct(Message)73_storage": {
        "encoding": "inplace",
        "label": "struct GreetingsRegistry.Message",
        "members": [
          {
            "astId": 68,
            "contract": "src/GreetingsRegistry.sol:GreetingsRegistry",
            "label": "content",
            "offset": 0,
            "slot": "0",
            "type": "t_string_storage"
          },
          {
            "astId": 70,
            "contract": "src/GreetingsRegistry.sol:GreetingsRegistry",
            "label": "timestamp",
            "offset": 0,
            "slot": "1",
            "type": "t_uint256"
          },
          {
            "astId": 72,
            "contract": "src/GreetingsRegistry.sol:GreetingsRegistry",
            "label": "dayTimeInSeconds",
            "offset": 0,
            "slot": "2",
            "type": "t_uint24"
          }
        ],
        "numberOfBytes": "96"
      },
      "t_uint24": {
        "encoding": "inplace",
        "label": "uint24",
        "numberOfBytes": "3"
      },
      "t_uint256": {
        "encoding": "inplace",
        "label": "uint256",
        "numberOfBytes": "32"
      }
    }
  },
  "userdoc": {
    "events": {
      "MessageChanged(address,uint256,string,uint24)": {
        "notice": "emitted whenever a user set a new greeting to the world"
      }
    },
    "kind": "user",
    "methods": {
      "lastGreetingOf(address)": {
        "notice": "return the last greeting message from the given `user`."
      },
      "messages(address)": {
        "notice": "return the last message from the given `user`."
      },
      "prefix()": {
        "notice": "return the prefix that is appended to any new message."
      },
      "setMessage(string,uint24)": {
        "notice": "set a new message for `msg.sender`."
      },
      "setMessageFor(address,string,uint24)": {
        "notice": "set a new message for `msg.sender`."
      }
    },
    "notice": "a registry that let user send greetings to the world  It is used as a demo for jolly-roger,  a fully featured SDK to build entirely decentralised apps and games  It is inteded to be deployed via upgradeable proxy locally  to showcase the HCR (Hot Contract Replacement) capabilities of `hardhat-deploy`  but immutable on live networks.",
    "version": 1
  },
  "argsData": "0x00000000000000000000000000000000000000000000000000000000000000200000000000000000000000000000000000000000000000000000000000000000",
  "transaction": {
    "hash": "0x8b466e9f8221ea11ea643d354d0260c18beaad54e882708056071040b7d26e09",
    "nonce": "0x81",
    "origin": "0x61c461ecc993aadeb7e4b47e96d1b8cc37314b20"
  }
}