{
  "address": "0xe0efb0b646482ffc4866f2f3ec35a178e9772629",
  "txHash": "0xa3eca650b925837d897d4c8aa937f69dc2d1fc8b54cb3f8118e262d3db26875d",
  "abi": [
    {
      "inputs": [
        {
          "internalType": "string",
          "name": "initialPrefix",
          "type": "string"
        }
      ],
      "stateMutability": "nonpayable",
      "type": "constructor"
    },
    {
      "anonymous": false,
      "inputs": [
        {
          "indexed": true,
          "internalType": "address",
          "name": "user",
          "type": "address"
        },
        {
          "indexed": false,
          "internalType": "uint256",
          "name": "timestamp",
          "type": "uint256"
        },
        {
          "indexed": false,
          "internalType": "string",
          "name": "message",
          "type": "string"
        },
        {
          "indexed": false,
          "internalType": "uint24",
          "name": "dayTimeInSeconds",
          "type": "uint24"
        }
      ],
      "name": "MessageChanged",
      "type": "event"
    },
    {
      "inputs": [
        {
          "internalType": "address",
          "name": "user",
          "type": "address"
        }
      ],
      "name": "lastGreetingOf",
      "outputs": [
        {
          "internalType": "string",
          "name": "greeting",
          "type": "string"
        }
      ],
      "stateMutability": "view",
      "type": "function"
    },
    {
      "inputs": [
        {
          "internalType": "address",
          "name": "user",
          "type": "address"
        }
      ],
      "name": "messages",
      "outputs": [
        {
          "components": [
            {
              "internalType": "string",
              "name": "content",
              "type": "string"
            },
            {
              "internalType": "uint256",
              "name": "timestamp",
              "type": "uint256"
            },
            {
              "internalType": "uint24",
              "name": "dayTimeInSeconds",
              "type": "uint24"
            }
          ],
          "internalType": "struct GreetingsRegistry.Message",
          "name": "userMsg",
          "type": "tuple"
        }
      ],
      "stateMutability": "view",
      "type": "function"
    },
    {
      "inputs": [
        {
          "internalType": "string",
          "name": "initialPrefix",
          "type": "string"
        }
      ],
      "name": "postUpgrade",
      "outputs": [],
      "stateMutability": "nonpayable",
      "type": "function"
    },
    {
      "inputs": [],
      "name": "prefix",
      "outputs": [
        {
          "internalType": "string",
          "name": "value",
          "type": "string"
        }
      ],
      "stateMutability": "view",
      "type": "function"
    },
    {
      "inputs": [
        {
          "internalType": "string",
          "name": "message",
          "type": "string"
        },
        {
          "internalType": "uint24",
          "name": "dayTimeInSeconds",
          "type": "uint24"
        }
      ],
      "name": "setMessage",
      "outputs": [],
      "stateMutability": "nonpayable",
      "type": "function"
    }
  ],
  "contractName": "GreetingsRegistry",
  "sourceName": "src/GreetingsRegistry.sol",
  "linkReferences": {},
  "deployedLinkReferences": {},
  "devdoc": {
    "events": {
      "MessageChanged(address,uint256,string,uint24)": {
        "details": "the timestamp is included to speedup indexing see: https://ethereum-magicians.org/t/proposal-for-adding-blocktimestamp-to-logs-object-returned-by-eth-getlogs-and-related-requests/11183",
        "params": {
          "dayTimeInSeconds": "the time of the day in seconds where 00:00 => 0 and 23:59 => 82859",
          "message": "the message content",
          "timestamp": "the time at which the message was recorded",
          "user": "the user that send the message"
        }
      }
    },
    "kind": "dev",
    "methods": {
      "constructor": {
        "details": "constructors",
        "params": {
          "initialPrefix": "the prefix that will be prepended to every user message goig forward"
        }
      },
      "lastGreetingOf(address)": {
        "params": {
          "user": "address of the user."
        },
        "returns": {
          "greeting": "the message's content send by the user."
        }
      },
      "messages(address)": {
        "params": {
          "user": "address of the user."
        },
        "returns": {
          "userMsg": "the message send by the user."
        }
      },
      "postUpgrade(string)": {
        "details": "called by the admin when the contract is deployed as a proxy",
        "params": {
          "initialPrefix": "the prefix that will be prepended to every user message goig forward"
        }
      },
      "prefix()": {
        "returns": {
          "value": "prefix string."
        }
      },
      "setMessage(string,uint24)": {
        "params": {
          "dayTimeInSeconds": "the time of the day in seconds the message was written.",
          "message": "the value to set as content."
        }
      }
    },
    "version": 1
  },
  "evm": {
    "bytecode": {
      "linkReferences": {},
      "object": "608060405234801562000010575f80fd5b50604051620014b6380380620014b68339818101604052810190620000369190620002ce565b62000047816200004e60201b60201c565b5062000638565b5f6200005f6200012160201b60201c565b90505f73ffffffffffffffffffffffffffffffffffffffff168173ffffffffffffffffffffffffffffffffffffffff1603620000d25773ffffffffffffffffffffffffffffffffffffffff7fb53127684a568b3173ae13b9f8a6016e243e63b6e8ee1178d6a717850b5d6103556200010b565b8073ffffffffffffffffffffffffffffffffffffffff163373ffffffffffffffffffffffffffffffffffffffff16146200010a575f80fd5b5b81600190816200011c919062000554565b505050565b5f7fb53127684a568b3173ae13b9f8a6016e243e63b6e8ee1178d6a717850b5d610354905090565b5f604051905090565b5f80fd5b5f80fd5b5f80fd5b5f80fd5b5f601f19601f8301169050919050565b7f4e487b71000000000000000000000000000000000000000000000000000000005f52604160045260245ffd5b620001aa8262000162565b810181811067ffffffffffffffff82111715620001cc57620001cb62000172565b5b80604052505050565b5f620001e062000149565b9050620001ee82826200019f565b919050565b5f67ffffffffffffffff82111562000210576200020f62000172565b5b6200021b8262000162565b9050602081019050919050565b5f5b83811015620002475780820151818401526020810190506200022a565b5f8484015250505050565b5f620002686200026284620001f3565b620001d5565b9050828152602081018484840111156200028757620002866200015e565b5b6200029484828562000228565b509392505050565b5f82601f830112620002b357620002b26200015a565b5b8151620002c584826020860162000252565b91505092915050565b5f60208284031215620002e657620002e562000152565b5b5f82015167ffffffffffffffff81111562000306576200030562000156565b5b62000314848285016200029c565b91505092915050565b5f81519050919050565b7f4e487b71000000000000000000000000000000000000000000000000000000005f52602260045260245ffd5b5f60028204905060018216806200036c57607f821691505b60208210810362000382576200038162000327565b5b50919050565b5f819050815f5260205f209050919050565b5f6020601f8301049050919050565b5f82821b905092915050565b5f60088302620003e67fffffffffffffffffffffffffffffffffffffffffffffffffffffffffffffffff82620003a9565b620003f28683620003a9565b95508019841693508086168417925050509392505050565b5f819050919050565b5f819050919050565b5f6200043c6200043662000430846200040a565b62000413565b6200040a565b9050919050565b5f819050919050565b62000457836200041c565b6200046f620004668262000443565b848454620003b5565b825550505050565b5f90565b6200048562000477565b620004928184846200044c565b505050565b5b81811015620004b957620004ad5f826200047b565b60018101905062000498565b5050565b601f8211156200050857620004d28162000388565b620004dd846200039a565b81016020851015620004ed578190505b62000505620004fc856200039a565b83018262000497565b50505b505050565b5f82821c905092915050565b5f6200052a5f19846008026200050d565b1980831691505092915050565b5f62000544838362000519565b9150826002028217905092915050565b6200055f826200031d565b67ffffffffffffffff8111156200057b576200057a62000172565b5b62000587825462000354565b62000594828285620004bd565b5f60209050601f831160018114620005ca575f8415620005b5578287015190505b620005c1858262000537565b86555062000630565b601f198416620005da8662000388565b5f5b828110156200060357848901518255600182019150602085019450602081019050620005dc565b868310156200062357848901516200061f601f89168262000519565b8355505b6001600288020188555050505b505050505050565b610e7080620006465f395ff3fe608060405234801561000f575f80fd5b5060043610610055575f3560e01c806303433b8e146100595780634c2dd808146100895780635fdd59f8146100a557806375dadb32146100d5578063b1441ce6146100f3575b5f80fd5b610073600480360381019061006e919061061c565b61010f565b60405161008091906106d1565b60405180910390f35b6100a3600480360381019061009e919061078a565b6101dd565b005b6100bf60048036038101906100ba919061061c565b6102fe565b6040516100cc91906108a3565b60405180910390f35b6100dd61040f565b6040516100ea91906106d1565b60405180910390f35b61010d600480360381019061010891906109eb565b61049f565b005b60605f808373ffffffffffffffffffffffffffffffffffffffff1673ffffffffffffffffffffffffffffffffffffffff1681526020019081526020015f205f01805461015a90610a5f565b80601f016020809104026020016040519081016040528092919081815260200182805461018690610a5f565b80156101d15780601f106101a8576101008083540402835291602001916101d1565b820191905f5260205f20905b8154815290600101906020018083116101b457829003601f168201915b50505050509050919050565b5f600184846040516020016101f493929190610b4f565b604051602081830303815290604052905060405180606001604052808281526020014281526020018362ffffff168152505f803373ffffffffffffffffffffffffffffffffffffffff1673ffffffffffffffffffffffffffffffffffffffff1681526020019081526020015f205f820151815f0190816102749190610d11565b50602082015181600101556040820151816002015f6101000a81548162ffffff021916908362ffffff1602179055509050503373ffffffffffffffffffffffffffffffffffffffff167f4650083cdd22f274f233c0ae8b1e5a23037ced29923011d703349cdeeface1af4283856040516102f093929190610dfe565b60405180910390a250505050565b61030661058d565b5f808373ffffffffffffffffffffffffffffffffffffffff1673ffffffffffffffffffffffffffffffffffffffff1681526020019081526020015f206040518060600160405290815f8201805461035c90610a5f565b80601f016020809104026020016040519081016040528092919081815260200182805461038890610a5f565b80156103d35780601f106103aa576101008083540402835291602001916103d3565b820191905f5260205f20905b8154815290600101906020018083116103b657829003601f168201915b5050505050815260200160018201548152602001600282015f9054906101000a900462ffffff1662ffffff1662ffffff16815250509050919050565b60606001805461041e90610a5f565b80601f016020809104026020016040519081016040528092919081815260200182805461044a90610a5f565b80156104955780601f1061046c57610100808354040283529160200191610495565b820191905f5260205f20905b81548152906001019060200180831161047857829003601f168201915b5050505050905090565b5f6104a8610565565b90505f73ffffffffffffffffffffffffffffffffffffffff168173ffffffffffffffffffffffffffffffffffffffff16036105195773ffffffffffffffffffffffffffffffffffffffff7fb53127684a568b3173ae13b9f8a6016e243e63b6e8ee1178d6a717850b5d610355610551565b8073ffffffffffffffffffffffffffffffffffffffff163373ffffffffffffffffffffffffffffffffffffffff1614610550575f80fd5b5b81600190816105609190610d11565b505050565b5f7fb53127684a568b3173ae13b9f8a6016e243e63b6e8ee1178d6a717850b5d610354905090565b6040518060600160405280606081526020015f81526020015f62ffffff1681525090565b5f604051905090565b5f80fd5b5f80fd5b5f73ffffffffffffffffffffffffffffffffffffffff82169050919050565b5f6105eb826105c2565b9050919050565b6105fb816105e1565b8114610605575f80fd5b50565b5f81359050610616816105f2565b92915050565b5f60208284031215610631576106306105ba565b5b5f61063e84828501610608565b91505092915050565b5f81519050919050565b5f82825260208201905092915050565b5f5b8381101561067e578082015181840152602081019050610663565b5f8484015250505050565b5f601f19601f8301169050919050565b5f6106a382610647565b6106ad8185610651565b93506106bd818560208601610661565b6106c681610689565b840191505092915050565b5f6020820190508181035f8301526106e98184610699565b905092915050565b5f80fd5b5f80fd5b5f80fd5b5f8083601f840112610712576107116106f1565b5b8235905067ffffffffffffffff81111561072f5761072e6106f5565b5b60208301915083600182028301111561074b5761074a6106f9565b5b9250929050565b5f62ffffff82169050919050565b61076981610752565b8114610773575f80fd5b50565b5f8135905061078481610760565b92915050565b5f805f604084860312156107a1576107a06105ba565b5b5f84013567ffffffffffffffff8111156107be576107bd6105be565b5b6107ca868287016106fd565b935093505060206107dd86828701610776565b9150509250925092565b5f82825260208201905092915050565b5f61080182610647565b61080b81856107e7565b935061081b818560208601610661565b61082481610689565b840191505092915050565b5f819050919050565b6108418161082f565b82525050565b61085081610752565b82525050565b5f606083015f8301518482035f86015261087082826107f7565b91505060208301516108856020860182610838565b5060408301516108986040860182610847565b508091505092915050565b5f6020820190508181035f8301526108bb8184610856565b905092915050565b5f80fd5b7f4e487b71000000000000000000000000000000000000000000000000000000005f52604160045260245ffd5b6108fd82610689565b810181811067ffffffffffffffff8211171561091c5761091b6108c7565b5b80604052505050565b5f61092e6105b1565b905061093a82826108f4565b919050565b5f67ffffffffffffffff821115610959576109586108c7565b5b61096282610689565b9050602081019050919050565b828183375f83830152505050565b5f61098f61098a8461093f565b610925565b9050828152602081018484840111156109ab576109aa6108c3565b5b6109b684828561096f565b509392505050565b5f82601f8301126109d2576109d16106f1565b5b81356109e284826020860161097d565b91505092915050565b5f60208284031215610a00576109ff6105ba565b5b5f82013567ffffffffffffffff811115610a1d57610a1c6105be565b5b610a29848285016109be565b91505092915050565b7f4e487b71000000000000000000000000000000000000000000000000000000005f52602260045260245ffd5b5f6002820490506001821680610a7657607f821691505b602082108103610a8957610a88610a32565b5b50919050565b5f81905092915050565b5f819050815f5260205f209050919050565b5f8154610ab781610a5f565b610ac18186610a8f565b9450600182165f8114610adb5760018114610af057610b22565b60ff1983168652811515820286019350610b22565b610af985610a99565b5f5b83811015610b1a57815481890152600182019150602081019050610afb565b838801955050505b50505092915050565b5f610b368385610a8f565b9350610b4383858461096f565b82840190509392505050565b5f610b5a8286610aab565b9150610b67828486610b2b565b9150819050949350505050565b5f819050815f5260205f209050919050565b5f6020601f8301049050919050565b5f82821b905092915050565b5f60088302610bd07fffffffffffffffffffffffffffffffffffffffffffffffffffffffffffffffff82610b95565b610bda8683610b95565b95508019841693508086168417925050509392505050565b5f819050919050565b5f610c15610c10610c0b8461082f565b610bf2565b61082f565b9050919050565b5f819050919050565b610c2e83610bfb565b610c42610c3a82610c1c565b848454610ba1565b825550505050565b5f90565b610c56610c4a565b610c61818484610c25565b505050565b5b81811015610c8457610c795f82610c4e565b600181019050610c67565b5050565b601f821115610cc957610c9a81610b74565b610ca384610b86565b81016020851015610cb2578190505b610cc6610cbe85610b86565b830182610c66565b50505b505050565b5f82821c905092915050565b5f610ce95f1984600802610cce565b1980831691505092915050565b5f610d018383610cda565b9150826002028217905092915050565b610d1a82610647565b67ffffffffffffffff811115610d3357610d326108c7565b5b610d3d8254610a5f565b610d48828285610c88565b5f60209050601f831160018114610d79575f8415610d67578287015190505b610d718582610cf6565b865550610dd8565b601f198416610d8786610b74565b5f5b82811015610dae57848901518255600182019150602085019450602081019050610d89565b86831015610dcb5784890151610dc7601f891682610cda565b8355505b6001600288020188555050505b505050505050565b610de98161082f565b82525050565b610df881610752565b82525050565b5f606082019050610e115f830186610de0565b8181036020830152610e238185610699565b9050610e326040830184610def565b94935050505056fea26469706673582212205ff57d7204d66f60a93eb3fd691fcd29b3ac4649481f79de900e407682122b2664736f6c63430008140033",
      "opcodes": "PUSH1 0x80 PUSH1 0x40 MSTORE CALLVALUE DUP1 ISZERO PUSH3 0x10 JUMPI PUSH0 DUP1 REVERT JUMPDEST POP PUSH1 0x40 MLOAD PUSH3 0x14B6 CODESIZE SUB DUP1 PUSH3 0x14B6 DUP4 CODECOPY DUP2 DUP2 ADD PUSH1 0x40 MSTORE DUP2 ADD SWAP1 PUSH3 0x36 SWAP2 SWAP1 PUSH3 0x2CE JUMP JUMPDEST PUSH3 0x47 DUP2 PUSH3 0x4E PUSH1 0x20 SHL PUSH1 0x20 SHR JUMP JUMPDEST POP PUSH3 0x638 JUMP JUMPDEST PUSH0 PUSH3 0x5F PUSH3 0x121 PUSH1 0x20 SHL PUSH1 0x20 SHR JUMP JUMPDEST SWAP1 POP PUSH0 PUSH20 0xFFFFFFFFFFFFFFFFFFFFFFFFFFFFFFFFFFFFFFFF AND DUP2 PUSH20 0xFFFFFFFFFFFFFFFFFFFFFFFFFFFFFFFFFFFFFFFF AND SUB PUSH3 0xD2 JUMPI PUSH20 0xFFFFFFFFFFFFFFFFFFFFFFFFFFFFFFFFFFFFFFFF PUSH32 0xB53127684A568B3173AE13B9F8A6016E243E63B6E8EE1178D6A717850B5D6103 SSTORE PUSH3 0x10B JUMP JUMPDEST DUP1 PUSH20 0xFFFFFFFFFFFFFFFFFFFFFFFFFFFFFFFFFFFFFFFF AND CALLER PUSH20 0xFFFFFFFFFFFFFFFFFFFFFFFFFFFFFFFFFFFFFFFF AND EQ PUSH3 0x10A JUMPI PUSH0 DUP1 REVERT JUMPDEST JUMPDEST DUP2 PUSH1 0x1 SWAP1 DUP2 PUSH3 0x11C SWAP2 SWAP1 PUSH3 0x554 JUMP JUMPDEST POP POP POP JUMP JUMPDEST PUSH0 PUSH32 0xB53127684A568B3173AE13B9F8A6016E243E63B6E8EE1178D6A717850B5D6103 SLOAD SWAP1 POP SWAP1 JUMP JUMPDEST PUSH0 PUSH1 0x40 MLOAD SWAP1 POP SWAP1 JUMP JUMPDEST PUSH0 DUP1 REVERT JUMPDEST PUSH0 DUP1 REVERT JUMPDEST PUSH0 DUP1 REVERT JUMPDEST PUSH0 DUP1 REVERT JUMPDEST PUSH0 PUSH1 0x1F NOT PUSH1 0x1F DUP4 ADD AND SWAP1 POP SWAP2 SWAP1 POP JUMP JUMPDEST PUSH32 0x4E487B7100000000000000000000000000000000000000000000000000000000 PUSH0 MSTORE PUSH1 0x41 PUSH1 0x4 MSTORE PUSH1 0x24 PUSH0 REVERT JUMPDEST PUSH3 0x1AA DUP3 PUSH3 0x162 JUMP JUMPDEST DUP2 ADD DUP2 DUP2 LT PUSH8 0xFFFFFFFFFFFFFFFF DUP3 GT OR ISZERO PUSH3 0x1CC JUMPI PUSH3 0x1CB PUSH3 0x172 JUMP JUMPDEST JUMPDEST DUP1 PUSH1 0x40 MSTORE POP POP POP JUMP JUMPDEST PUSH0 PUSH3 0x1E0 PUSH3 0x149 JUMP JUMPDEST SWAP1 POP PUSH3 0x1EE DUP3 DUP3 PUSH3 0x19F JUMP JUMPDEST SWAP2 SWAP1 POP JUMP JUMPDEST PUSH0 PUSH8 0xFFFFFFFFFFFFFFFF DUP3 GT ISZERO PUSH3 0x210 JUMPI PUSH3 0x20F PUSH3 0x172 JUMP JUMPDEST JUMPDEST PUSH3 0x21B DUP3 PUSH3 0x162 JUMP JUMPDEST SWAP1 POP PUSH1 0x20 DUP2 ADD SWAP1 POP SWAP2 SWAP1 POP JUMP JUMPDEST PUSH0 JUMPDEST DUP4 DUP2 LT ISZERO PUSH3 0x247 JUMPI DUP1 DUP3 ADD MLOAD DUP2 DUP5 ADD MSTORE PUSH1 0x20 DUP2 ADD SWAP1 POP PUSH3 0x22A JUMP JUMPDEST PUSH0 DUP5 DUP5 ADD MSTORE POP POP POP POP JUMP JUMPDEST PUSH0 PUSH3 0x268 PUSH3 0x262 DUP5 PUSH3 0x1F3 JUMP JUMPDEST PUSH3 0x1D5 JUMP JUMPDEST SWAP1 POP DUP3 DUP2 MSTORE PUSH1 0x20 DUP2 ADD DUP5 DUP5 DUP5 ADD GT ISZERO PUSH3 0x287 JUMPI PUSH3 0x286 PUSH3 0x15E JUMP JUMPDEST JUMPDEST PUSH3 0x294 DUP5 DUP3 DUP6 PUSH3 0x228 JUMP JUMPDEST POP SWAP4 SWAP3 POP POP POP JUMP JUMPDEST PUSH0 DUP3 PUSH1 0x1F DUP4 ADD SLT PUSH3 0x2B3 JUMPI PUSH3 0x2B2 PUSH3 0x15A JUMP JUMPDEST JUMPDEST DUP2 MLOAD PUSH3 0x2C5 DUP5 DUP3 PUSH1 0x20 DUP7 ADD PUSH3 0x252 JUMP JUMPDEST SWAP2 POP POP SWAP3 SWAP2 POP POP JUMP JUMPDEST PUSH0 PUSH1 0x20 DUP3 DUP5 SUB SLT ISZERO PUSH3 0x2E6 JUMPI PUSH3 0x2E5 PUSH3 0x152 JUMP JUMPDEST JUMPDEST PUSH0 DUP3 ADD MLOAD PUSH8 0xFFFFFFFFFFFFFFFF DUP2 GT ISZERO PUSH3 0x306 JUMPI PUSH3 0x305 PUSH3 0x156 JUMP JUMPDEST JUMPDEST PUSH3 0x314 DUP5 DUP3 DUP6 ADD PUSH3 0x29C JUMP JUMPDEST SWAP2 POP POP SWAP3 SWAP2 POP POP JUMP JUMPDEST PUSH0 DUP2 MLOAD SWAP1 POP SWAP2 SWAP1 POP JUMP JUMPDEST PUSH32 0x4E487B7100000000000000000000000000000000000000000000000000000000 PUSH0 MSTORE PUSH1 0x22 PUSH1 0x4 MSTORE PUSH1 0x24 PUSH0 REVERT JUMPDEST PUSH0 PUSH1 0x2 DUP3 DIV SWAP1 POP PUSH1 0x1 DUP3 AND DUP1 PUSH3 0x36C JUMPI PUSH1 0x7F DUP3 AND SWAP2 POP JUMPDEST PUSH1 0x20 DUP3 LT DUP2 SUB PUSH3 0x382 JUMPI PUSH3 0x381 PUSH3 0x327 JUMP JUMPDEST JUMPDEST POP SWAP2 SWAP1 POP JUMP JUMPDEST PUSH0 DUP2 SWAP1 POP DUP2 PUSH0 MSTORE PUSH1 0x20 PUSH0 KECCAK256 SWAP1 POP SWAP2 SWAP1 POP JUMP JUMPDEST PUSH0 PUSH1 0x20 PUSH1 0x1F DUP4 ADD DIV SWAP1 POP SWAP2 SWAP1 POP JUMP JUMPDEST PUSH0 DUP3 DUP3 SHL SWAP1 POP SWAP3 SWAP2 POP POP JUMP JUMPDEST PUSH0 PUSH1 0x8 DUP4 MUL PUSH3 0x3E6 PUSH32 0xFFFFFFFFFFFFFFFFFFFFFFFFFFFFFFFFFFFFFFFFFFFFFFFFFFFFFFFFFFFFFFFF DUP3 PUSH3 0x3A9 JUMP JUMPDEST PUSH3 0x3F2 DUP7 DUP4 PUSH3 0x3A9 JUMP JUMPDEST SWAP6 POP DUP1 NOT DUP5 AND SWAP4 POP DUP1 DUP7 AND DUP5 OR SWAP3 POP POP POP SWAP4 SWAP3 POP POP POP JUMP JUMPDEST PUSH0 DUP2 SWAP1 POP SWAP2 SWAP1 POP JUMP JUMPDEST PUSH0 DUP2 SWAP1 POP SWAP2 SWAP1 POP JUMP JUMPDEST PUSH0 PUSH3 0x43C PUSH3 0x436 PUSH3 0x430 DUP5 PUSH3 0x40A JUMP JUMPDEST PUSH3 0x413 JUMP JUMPDEST PUSH3 0x40A JUMP JUMPDEST SWAP1 POP SWAP2 SWAP1 POP JUMP JUMPDEST PUSH0 DUP2 SWAP1 POP SWAP2 SWAP1 POP JUMP JUMPDEST PUSH3 0x457 DUP4 PUSH3 0x41C JUMP JUMPDEST PUSH3 0x46F PUSH3 0x466 DUP3 PUSH3 0x443 JUMP JUMPDEST DUP5 DUP5 SLOAD PUSH3 0x3B5 JUMP JUMPDEST DUP3 SSTORE POP POP POP POP JUMP JUMPDEST PUSH0 SWAP1 JUMP JUMPDEST PUSH3 0x485 PUSH3 0x477 JUMP JUMPDEST PUSH3 0x492 DUP2 DUP5 DUP5 PUSH3 0x44C JUMP JUMPDEST POP POP POP JUMP JUMPDEST JUMPDEST DUP2 DUP2 LT ISZERO PUSH3 0x4B9 JUMPI PUSH3 0x4AD PUSH0 DUP3 PUSH3 0x47B JUMP JUMPDEST PUSH1 0x1 DUP2 ADD SWAP1 POP PUSH3 0x498 JUMP JUMPDEST POP POP JUMP JUMPDEST PUSH1 0x1F DUP3 GT ISZERO PUSH3 0x508 JUMPI PUSH3 0x4D2 DUP2 PUSH3 0x388 JUMP JUMPDEST PUSH3 0x4DD DUP5 PUSH3 0x39A JUMP JUMPDEST DUP2 ADD PUSH1 0x20 DUP6 LT ISZERO PUSH3 0x4ED JUMPI DUP2 SWAP1 POP JUMPDEST PUSH3 0x505 PUSH3 0x4FC DUP6 PUSH3 0x39A JUMP JUMPDEST DUP4 ADD DUP3 PUSH3 0x497 JUMP JUMPDEST POP POP JUMPDEST POP POP POP JUMP JUMPDEST PUSH0 DUP3 DUP3 SHR SWAP1 POP SWAP3 SWAP2 POP POP JUMP JUMPDEST PUSH0 PUSH3 0x52A PUSH0 NOT DUP5 PUSH1 0x8 MUL PUSH3 0x50D JUMP JUMPDEST NOT DUP1 DUP4 AND SWAP2 POP POP SWAP3 SWAP2 POP POP JUMP JUMPDEST PUSH0 PUSH3 0x544 DUP4 DUP4 PUSH3 0x519 JUMP JUMPDEST SWAP2 POP DUP3 PUSH1 0x2 MUL DUP3 OR SWAP1 POP SWAP3 SWAP2 POP POP JUMP JUMPDEST PUSH3 0x55F DUP3 PUSH3 0x31D JUMP JUMPDEST PUSH8 0xFFFFFFFFFFFFFFFF DUP2 GT ISZERO PUSH3 0x57B JUMPI PUSH3 0x57A PUSH3 0x172 JUMP JUMPDEST JUMPDEST PUSH3 0x587 DUP3 SLOAD PUSH3 0x354 JUMP JUMPDEST PUSH3 0x594 DUP3 DUP3 DUP6 PUSH3 0x4BD JUMP JUMPDEST PUSH0 PUSH1 0x20 SWAP1 POP PUSH1 0x1F DUP4 GT PUSH1 0x1 DUP2 EQ PUSH3 0x5CA JUMPI PUSH0 DUP5 ISZERO PUSH3 0x5B5 JUMPI DUP3 DUP8 ADD MLOAD SWAP1 POP JUMPDEST PUSH3 0x5C1 DUP6 DUP3 PUSH3 0x537 JUMP JUMPDEST DUP7 SSTORE POP PUSH3 0x630 JUMP JUMPDEST PUSH1 0x1F NOT DUP5 AND PUSH3 0x5DA DUP7 PUSH3 0x388 JUMP JUMPDEST PUSH0 JUMPDEST DUP3 DUP2 LT ISZERO PUSH3 0x603 JUMPI DUP5 DUP10 ADD MLOAD DUP3 SSTORE PUSH1 0x1 DUP3 ADD SWAP2 POP PUSH1 0x20 DUP6 ADD SWAP5 POP PUSH1 0x20 DUP2 ADD SWAP1 POP PUSH3 0x5DC JUMP JUMPDEST DUP7 DUP4 LT ISZERO PUSH3 0x623 JUMPI DUP5 DUP10 ADD MLOAD PUSH3 0x61F PUSH1 0x1F DUP10 AND DUP3 PUSH3 0x519 JUMP JUMPDEST DUP4 SSTORE POP JUMPDEST PUSH1 0x1 PUSH1 0x2 DUP9 MUL ADD DUP9 SSTORE POP POP POP JUMPDEST POP POP POP POP POP POP JUMP JUMPDEST PUSH2 0xE70 DUP1 PUSH3 0x646 PUSH0 CODECOPY PUSH0 RETURN INVALID PUSH1 0x80 PUSH1 0x40 MSTORE CALLVALUE DUP1 ISZERO PUSH2 0xF JUMPI PUSH0 DUP1 REVERT JUMPDEST POP PUSH1 0x4 CALLDATASIZE LT PUSH2 0x55 JUMPI PUSH0 CALLDATALOAD PUSH1 0xE0 SHR DUP1 PUSH4 0x3433B8E EQ PUSH2 0x59 JUMPI DUP1 PUSH4 0x4C2DD808 EQ PUSH2 0x89 JUMPI DUP1 PUSH4 0x5FDD59F8 EQ PUSH2 0xA5 JUMPI DUP1 PUSH4 0x75DADB32 EQ PUSH2 0xD5 JUMPI DUP1 PUSH4 0xB1441CE6 EQ PUSH2 0xF3 JUMPI JUMPDEST PUSH0 DUP1 REVERT JUMPDEST PUSH2 0x73 PUSH1 0x4 DUP1 CALLDATASIZE SUB DUP2 ADD SWAP1 PUSH2 0x6E SWAP2 SWAP1 PUSH2 0x61C JUMP JUMPDEST PUSH2 0x10F JUMP JUMPDEST PUSH1 0x40 MLOAD PUSH2 0x80 SWAP2 SWAP1 PUSH2 0x6D1 JUMP JUMPDEST PUSH1 0x40 MLOAD DUP1 SWAP2 SUB SWAP1 RETURN JUMPDEST PUSH2 0xA3 PUSH1 0x4 DUP1 CALLDATASIZE SUB DUP2 ADD SWAP1 PUSH2 0x9E SWAP2 SWAP1 PUSH2 0x78A JUMP JUMPDEST PUSH2 0x1DD JUMP JUMPDEST STOP JUMPDEST PUSH2 0xBF PUSH1 0x4 DUP1 CALLDATASIZE SUB DUP2 ADD SWAP1 PUSH2 0xBA SWAP2 SWAP1 PUSH2 0x61C JUMP JUMPDEST PUSH2 0x2FE JUMP JUMPDEST PUSH1 0x40 MLOAD PUSH2 0xCC SWAP2 SWAP1 PUSH2 0x8A3 JUMP JUMPDEST PUSH1 0x40 MLOAD DUP1 SWAP2 SUB SWAP1 RETURN JUMPDEST PUSH2 0xDD PUSH2 0x40F JUMP JUMPDEST PUSH1 0x40 MLOAD PUSH2 0xEA SWAP2 SWAP1 PUSH2 0x6D1 JUMP JUMPDEST PUSH1 0x40 MLOAD DUP1 SWAP2 SUB SWAP1 RETURN JUMPDEST PUSH2 0x10D PUSH1 0x4 DUP1 CALLDATASIZE SUB DUP2 ADD SWAP1 PUSH2 0x108 SWAP2 SWAP1 PUSH2 0x9EB JUMP JUMPDEST PUSH2 0x49F JUMP JUMPDEST STOP JUMPDEST PUSH1 0x60 PUSH0 DUP1 DUP4 PUSH20 0xFFFFFFFFFFFFFFFFFFFFFFFFFFFFFFFFFFFFFFFF AND PUSH20 0xFFFFFFFFFFFFFFFFFFFFFFFFFFFFFFFFFFFFFFFF AND DUP2 MSTORE PUSH1 0x20 ADD SWAP1 DUP2 MSTORE PUSH1 0x20 ADD PUSH0 KECCAK256 PUSH0 ADD DUP1 SLOAD PUSH2 0x15A SWAP1 PUSH2 0xA5F JUMP JUMPDEST DUP1 PUSH1 0x1F ADD PUSH1 0x20 DUP1 SWAP2 DIV MUL PUSH1 0x20 ADD PUSH1 0x40 MLOAD SWAP1 DUP2 ADD PUSH1 0x40 MSTORE DUP1 SWAP3 SWAP2 SWAP1 DUP2 DUP2 MSTORE PUSH1 0x20 ADD DUP3 DUP1 SLOAD PUSH2 0x186 SWAP1 PUSH2 0xA5F JUMP JUMPDEST DUP1 ISZERO PUSH2 0x1D1 JUMPI DUP1 PUSH1 0x1F LT PUSH2 0x1A8 JUMPI PUSH2 0x100 DUP1 DUP4 SLOAD DIV MUL DUP4 MSTORE SWAP2 PUSH1 0x20 ADD SWAP2 PUSH2 0x1D1 JUMP JUMPDEST DUP3 ADD SWAP2 SWAP1 PUSH0 MSTORE PUSH1 0x20 PUSH0 KECCAK256 SWAP1 JUMPDEST DUP2 SLOAD DUP2 MSTORE SWAP1 PUSH1 0x1 ADD SWAP1 PUSH1 0x20 ADD DUP1 DUP4 GT PUSH2 0x1B4 JUMPI DUP3 SWAP1 SUB PUSH1 0x1F AND DUP3 ADD SWAP2 JUMPDEST POP POP POP POP POP SWAP1 POP SWAP2 SWAP1 POP JUMP JUMPDEST PUSH0 PUSH1 0x1 DUP5 DUP5 PUSH1 0x40 MLOAD PUSH1 0x20 ADD PUSH2 0x1F4 SWAP4 SWAP3 SWAP2 SWAP1 PUSH2 0xB4F JUMP JUMPDEST PUSH1 0x40 MLOAD PUSH1 0x20 DUP2 DUP4 SUB SUB DUP2 MSTORE SWAP1 PUSH1 0x40 MSTORE SWAP1 POP PUSH1 0x40 MLOAD DUP1 PUSH1 0x60 ADD PUSH1 0x40 MSTORE DUP1 DUP3 DUP2 MSTORE PUSH1 0x20 ADD TIMESTAMP DUP2 MSTORE PUSH1 0x20 ADD DUP4 PUSH3 0xFFFFFF AND DUP2 MSTORE POP PUSH0 DUP1 CALLER PUSH20 0xFFFFFFFFFFFFFFFFFFFFFFFFFFFFFFFFFFFFFFFF AND PUSH20 0xFFFFFFFFFFFFFFFFFFFFFFFFFFFFFFFFFFFFFFFF AND DUP2 MSTORE PUSH1 0x20 ADD SWAP1 DUP2 MSTORE PUSH1 0x20 ADD PUSH0 KECCAK256 PUSH0 DUP3 ADD MLOAD DUP2 PUSH0 ADD SWAP1 DUP2 PUSH2 0x274 SWAP2 SWAP1 PUSH2 0xD11 JUMP JUMPDEST POP PUSH1 0x20 DUP3 ADD MLOAD DUP2 PUSH1 0x1 ADD SSTORE PUSH1 0x40 DUP3 ADD MLOAD DUP2 PUSH1 0x2 ADD PUSH0 PUSH2 0x100 EXP DUP2 SLOAD DUP2 PUSH3 0xFFFFFF MUL NOT AND SWAP1 DUP4 PUSH3 0xFFFFFF AND MUL OR SWAP1 SSTORE POP SWAP1 POP POP CALLER PUSH20 0xFFFFFFFFFFFFFFFFFFFFFFFFFFFFFFFFFFFFFFFF AND PUSH32 0x4650083CDD22F274F233C0AE8B1E5A23037CED29923011D703349CDEEFACE1AF TIMESTAMP DUP4 DUP6 PUSH1 0x40 MLOAD PUSH2 0x2F0 SWAP4 SWAP3 SWAP2 SWAP1 PUSH2 0xDFE JUMP JUMPDEST PUSH1 0x40 MLOAD DUP1 SWAP2 SUB SWAP1 LOG2 POP POP POP POP JUMP JUMPDEST PUSH2 0x306 PUSH2 0x58D JUMP JUMPDEST PUSH0 DUP1 DUP4 PUSH20 0xFFFFFFFFFFFFFFFFFFFFFFFFFFFFFFFFFFFFFFFF AND PUSH20 0xFFFFFFFFFFFFFFFFFFFFFFFFFFFFFFFFFFFFFFFF AND DUP2 MSTORE PUSH1 0x20 ADD SWAP1 DUP2 MSTORE PUSH1 0x20 ADD PUSH0 KECCAK256 PUSH1 0x40 MLOAD DUP1 PUSH1 0x60 ADD PUSH1 0x40 MSTORE SWAP1 DUP2 PUSH0 DUP3 ADD DUP1 SLOAD PUSH2 0x35C SWAP1 PUSH2 0xA5F JUMP JUMPDEST DUP1 PUSH1 0x1F ADD PUSH1 0x20 DUP1 SWAP2 DIV MUL PUSH1 0x20 ADD PUSH1 0x40 MLOAD SWAP1 DUP2 ADD PUSH1 0x40 MSTORE DUP1 SWAP3 SWAP2 SWAP1 DUP2 DUP2 MSTORE PUSH1 0x20 ADD DUP3 DUP1 SLOAD PUSH2 0x388 SWAP1 PUSH2 0xA5F JUMP JUMPDEST DUP1 ISZERO PUSH2 0x3D3 JUMPI DUP1 PUSH1 0x1F LT PUSH2 0x3AA JUMPI PUSH2 0x100 DUP1 DUP4 SLOAD DIV MUL DUP4 MSTORE SWAP2 PUSH1 0x20 ADD SWAP2 PUSH2 0x3D3 JUMP JUMPDEST DUP3 ADD SWAP2 SWAP1 PUSH0 MSTORE PUSH1 0x20 PUSH0 KECCAK256 SWAP1 JUMPDEST DUP2 SLOAD DUP2 MSTORE SWAP1 PUSH1 0x1 ADD SWAP1 PUSH1 0x20 ADD DUP1 DUP4 GT PUSH2 0x3B6 JUMPI DUP3 SWAP1 SUB PUSH1 0x1F AND DUP3 ADD SWAP2 JUMPDEST POP POP POP POP POP DUP2 MSTORE PUSH1 0x20 ADD PUSH1 0x1 DUP3 ADD SLOAD DUP2 MSTORE PUSH1 0x20 ADD PUSH1 0x2 DUP3 ADD PUSH0 SWAP1 SLOAD SWAP1 PUSH2 0x100 EXP SWAP1 DIV PUSH3 0xFFFFFF AND PUSH3 0xFFFFFF AND PUSH3 0xFFFFFF AND DUP2 MSTORE POP POP SWAP1 POP SWAP2 SWAP1 POP JUMP JUMPDEST PUSH1 0x60 PUSH1 0x1 DUP1 SLOAD PUSH2 0x41E SWAP1 PUSH2 0xA5F JUMP JUMPDEST DUP1 PUSH1 0x1F ADD PUSH1 0x20 DUP1 SWAP2 DIV MUL PUSH1 0x20 ADD PUSH1 0x40 MLOAD SWAP1 DUP2 ADD PUSH1 0x40 MSTORE DUP1 SWAP3 SWAP2 SWAP1 DUP2 DUP2 MSTORE PUSH1 0x20 ADD DUP3 DUP1 SLOAD PUSH2 0x44A SWAP1 PUSH2 0xA5F JUMP JUMPDEST DUP1 ISZERO PUSH2 0x495 JUMPI DUP1 PUSH1 0x1F LT PUSH2 0x46C JUMPI PUSH2 0x100 DUP1 DUP4 SLOAD DIV MUL DUP4 MSTORE SWAP2 PUSH1 0x20 ADD SWAP2 PUSH2 0x495 JUMP JUMPDEST DUP3 ADD SWAP2 SWAP1 PUSH0 MSTORE PUSH1 0x20 PUSH0 KECCAK256 SWAP1 JUMPDEST DUP2 SLOAD DUP2 MSTORE SWAP1 PUSH1 0x1 ADD SWAP1 PUSH1 0x20 ADD DUP1 DUP4 GT PUSH2 0x478 JUMPI DUP3 SWAP1 SUB PUSH1 0x1F AND DUP3 ADD SWAP2 JUMPDEST POP POP POP POP POP SWAP1 POP SWAP1 JUMP JUMPDEST PUSH0 PUSH2 0x4A8 PUSH2 0x565 JUMP JUMPDEST SWAP1 POP PUSH0 PUSH20 0xFFFFFFFFFFFFFFFFFFFFFFFFFFFFFFFFFFFFFFFF AND DUP2 PUSH20 0xFFFFFFFFFFFFFFFFFFFFFFFFFFFFFFFFFFFFFFFF AND SUB PUSH2 0x519 JUMPI PUSH20 0xFFFFFFFFFFFFFFFFFFFFFFFFFFFFFFFFFFFFFFFF PUSH32 0xB53127684A568B3173AE13B9F8A6016E243E63B6E8EE1178D6A717850B5D6103 SSTORE PUSH2 0x551 JUMP JUMPDEST DUP1 PUSH20 0xFFFFFFFFFFFFFFFFFFFFFFFFFFFFFFFFFFFFFFFF AND CALLER PUSH20 0xFFFFFFFFFFFFFFFFFFFFFFFFFFFFFFFFFFFFFFFF AND EQ PUSH2 0x550 JUMPI PUSH0 DUP1 REVERT JUMPDEST JUMPDEST DUP2 PUSH1 0x1 SWAP1 DUP2 PUSH2 0x560 SWAP2 SWAP1 PUSH2 0xD11 JUMP JUMPDEST POP POP POP JUMP JUMPDEST PUSH0 PUSH32 0xB53127684A568B3173AE13B9F8A6016E243E63B6E8EE1178D6A717850B5D6103 SLOAD SWAP1 POP SWAP1 JUMP JUMPDEST PUSH1 0x40 MLOAD DUP1 PUSH1 0x60 ADD PUSH1 0x40 MSTORE DUP1 PUSH1 0x60 DUP2 MSTORE PUSH1 0x20 ADD PUSH0 DUP2 MSTORE PUSH1 0x20 ADD PUSH0 PUSH3 0xFFFFFF AND DUP2 MSTORE POP SWAP1 JUMP JUMPDEST PUSH0 PUSH1 0x40 MLOAD SWAP1 POP SWAP1 JUMP JUMPDEST PUSH0 DUP1 REVERT JUMPDEST PUSH0 DUP1 REVERT JUMPDEST PUSH0 PUSH20 0xFFFFFFFFFFFFFFFFFFFFFFFFFFFFFFFFFFFFFFFF DUP3 AND SWAP1 POP SWAP2 SWAP1 POP JUMP JUMPDEST PUSH0 PUSH2 0x5EB DUP3 PUSH2 0x5C2 JUMP JUMPDEST SWAP1 POP SWAP2 SWAP1 POP JUMP JUMPDEST PUSH2 0x5FB DUP2 PUSH2 0x5E1 JUMP JUMPDEST DUP2 EQ PUSH2 0x605 JUMPI PUSH0 DUP1 REVERT JUMPDEST POP JUMP JUMPDEST PUSH0 DUP2 CALLDATALOAD SWAP1 POP PUSH2 0x616 DUP2 PUSH2 0x5F2 JUMP JUMPDEST SWAP3 SWAP2 POP POP JUMP JUMPDEST PUSH0 PUSH1 0x20 DUP3 DUP5 SUB SLT ISZERO PUSH2 0x631 JUMPI PUSH2 0x630 PUSH2 0x5BA JUMP JUMPDEST JUMPDEST PUSH0 PUSH2 0x63E DUP5 DUP3 DUP6 ADD PUSH2 0x608 JUMP JUMPDEST SWAP2 POP POP SWAP3 SWAP2 POP POP JUMP JUMPDEST PUSH0 DUP2 MLOAD SWAP1 POP SWAP2 SWAP1 POP JUMP JUMPDEST PUSH0 DUP3 DUP3 MSTORE PUSH1 0x20 DUP3 ADD SWAP1 POP SWAP3 SWAP2 POP POP JUMP JUMPDEST PUSH0 JUMPDEST DUP4 DUP2 LT ISZERO PUSH2 0x67E JUMPI DUP1 DUP3 ADD MLOAD DUP2 DUP5 ADD MSTORE PUSH1 0x20 DUP2 ADD SWAP1 POP PUSH2 0x663 JUMP JUMPDEST PUSH0 DUP5 DUP5 ADD MSTORE POP POP POP POP JUMP JUMPDEST PUSH0 PUSH1 0x1F NOT PUSH1 0x1F DUP4 ADD AND SWAP1 POP SWAP2 SWAP1 POP JUMP JUMPDEST PUSH0 PUSH2 0x6A3 DUP3 PUSH2 0x647 JUMP JUMPDEST PUSH2 0x6AD DUP2 DUP6 PUSH2 0x651 JUMP JUMPDEST SWAP4 POP PUSH2 0x6BD DUP2 DUP6 PUSH1 0x20 DUP7 ADD PUSH2 0x661 JUMP JUMPDEST PUSH2 0x6C6 DUP2 PUSH2 0x689 JUMP JUMPDEST DUP5 ADD SWAP2 POP POP SWAP3 SWAP2 POP POP JUMP JUMPDEST PUSH0 PUSH1 0x20 DUP3 ADD SWAP1 POP DUP2 DUP2 SUB PUSH0 DUP4 ADD MSTORE PUSH2 0x6E9 DUP2 DUP5 PUSH2 0x699 JUMP JUMPDEST SWAP1 POP SWAP3 SWAP2 POP POP JUMP JUMPDEST PUSH0 DUP1 REVERT JUMPDEST PUSH0 DUP1 REVERT JUMPDEST PUSH0 DUP1 REVERT JUMPDEST PUSH0 DUP1 DUP4 PUSH1 0x1F DUP5 ADD SLT PUSH2 0x712 JUMPI PUSH2 0x711 PUSH2 0x6F1 JUMP JUMPDEST JUMPDEST DUP3 CALLDATALOAD SWAP1 POP PUSH8 0xFFFFFFFFFFFFFFFF DUP2 GT ISZERO PUSH2 0x72F JUMPI PUSH2 0x72E PUSH2 0x6F5 JUMP JUMPDEST JUMPDEST PUSH1 0x20 DUP4 ADD SWAP2 POP DUP4 PUSH1 0x1 DUP3 MUL DUP4 ADD GT ISZERO PUSH2 0x74B JUMPI PUSH2 0x74A PUSH2 0x6F9 JUMP JUMPDEST JUMPDEST SWAP3 POP SWAP3 SWAP1 POP JUMP JUMPDEST PUSH0 PUSH3 0xFFFFFF DUP3 AND SWAP1 POP SWAP2 SWAP1 POP JUMP JUMPDEST PUSH2 0x769 DUP2 PUSH2 0x752 JUMP JUMPDEST DUP2 EQ PUSH2 0x773 JUMPI PUSH0 DUP1 REVERT JUMPDEST POP JUMP JUMPDEST PUSH0 DUP2 CALLDATALOAD SWAP1 POP PUSH2 0x784 DUP2 PUSH2 0x760 JUMP JUMPDEST SWAP3 SWAP2 POP POP JUMP JUMPDEST PUSH0 DUP1 PUSH0 PUSH1 0x40 DUP5 DUP7 SUB SLT ISZERO PUSH2 0x7A1 JUMPI PUSH2 0x7A0 PUSH2 0x5BA JUMP JUMPDEST JUMPDEST PUSH0 DUP5 ADD CALLDATALOAD PUSH8 0xFFFFFFFFFFFFFFFF DUP2 GT ISZERO PUSH2 0x7BE JUMPI PUSH2 0x7BD PUSH2 0x5BE JUMP JUMPDEST JUMPDEST PUSH2 0x7CA DUP7 DUP3 DUP8 ADD PUSH2 0x6FD JUMP JUMPDEST SWAP4 POP SWAP4 POP POP PUSH1 0x20 PUSH2 0x7DD DUP7 DUP3 DUP8 ADD PUSH2 0x776 JUMP JUMPDEST SWAP2 POP POP SWAP3 POP SWAP3 POP SWAP3 JUMP JUMPDEST PUSH0 DUP3 DUP3 MSTORE PUSH1 0x20 DUP3 ADD SWAP1 POP SWAP3 SWAP2 POP POP JUMP JUMPDEST PUSH0 PUSH2 0x801 DUP3 PUSH2 0x647 JUMP JUMPDEST PUSH2 0x80B DUP2 DUP6 PUSH2 0x7E7 JUMP JUMPDEST SWAP4 POP PUSH2 0x81B DUP2 DUP6 PUSH1 0x20 DUP7 ADD PUSH2 0x661 JUMP JUMPDEST PUSH2 0x824 DUP2 PUSH2 0x689 JUMP JUMPDEST DUP5 ADD SWAP2 POP POP SWAP3 SWAP2 POP POP JUMP JUMPDEST PUSH0 DUP2 SWAP1 POP SWAP2 SWAP1 POP JUMP JUMPDEST PUSH2 0x841 DUP2 PUSH2 0x82F JUMP JUMPDEST DUP3 MSTORE POP POP JUMP JUMPDEST PUSH2 0x850 DUP2 PUSH2 0x752 JUMP JUMPDEST DUP3 MSTORE POP POP JUMP JUMPDEST PUSH0 PUSH1 0x60 DUP4 ADD PUSH0 DUP4 ADD MLOAD DUP5 DUP3 SUB PUSH0 DUP7 ADD MSTORE PUSH2 0x870 DUP3 DUP3 PUSH2 0x7F7 JUMP JUMPDEST SWAP2 POP POP PUSH1 0x20 DUP4 ADD MLOAD PUSH2 0x885 PUSH1 0x20 DUP7 ADD DUP3 PUSH2 0x838 JUMP JUMPDEST POP PUSH1 0x40 DUP4 ADD MLOAD PUSH2 0x898 PUSH1 0x40 DUP7 ADD DUP3 PUSH2 0x847 JUMP JUMPDEST POP DUP1 SWAP2 POP POP SWAP3 SWAP2 POP POP JUMP JUMPDEST PUSH0 PUSH1 0x20 DUP3 ADD SWAP1 POP DUP2 DUP2 SUB PUSH0 DUP4 ADD MSTORE PUSH2 0x8BB DUP2 DUP5 PUSH2 0x856 JUMP JUMPDEST SWAP1 POP SWAP3 SWAP2 POP POP JUMP JUMPDEST PUSH0 DUP1 REVERT JUMPDEST PUSH32 0x4E487B7100000000000000000000000000000000000000000000000000000000 PUSH0 MSTORE PUSH1 0x41 PUSH1 0x4 MSTORE PUSH1 0x24 PUSH0 REVERT JUMPDEST PUSH2 0x8FD DUP3 PUSH2 0x689 JUMP JUMPDEST DUP2 ADD DUP2 DUP2 LT PUSH8 0xFFFFFFFFFFFFFFFF DUP3 GT OR ISZERO PUSH2 0x91C JUMPI PUSH2 0x91B PUSH2 0x8C7 JUMP JUMPDEST JUMPDEST DUP1 PUSH1 0x40 MSTORE POP POP POP JUMP JUMPDEST PUSH0 PUSH2 0x92E PUSH2 0x5B1 JUMP JUMPDEST SWAP1 POP PUSH2 0x93A DUP3 DUP3 PUSH2 0x8F4 JUMP JUMPDEST SWAP2 SWAP1 POP JUMP JUMPDEST PUSH0 PUSH8 0xFFFFFFFFFFFFFFFF DUP3 GT ISZERO PUSH2 0x959 JUMPI PUSH2 0x958 PUSH2 0x8C7 JUMP JUMPDEST JUMPDEST PUSH2 0x962 DUP3 PUSH2 0x689 JUMP JUMPDEST SWAP1 POP PUSH1 0x20 DUP2 ADD SWAP1 POP SWAP2 SWAP1 POP JUMP JUMPDEST DUP3 DUP2 DUP4 CALLDATACOPY PUSH0 DUP4 DUP4 ADD MSTORE POP POP POP JUMP JUMPDEST PUSH0 PUSH2 0x98F PUSH2 0x98A DUP5 PUSH2 0x93F JUMP JUMPDEST PUSH2 0x925 JUMP JUMPDEST SWAP1 POP DUP3 DUP2 MSTORE PUSH1 0x20 DUP2 ADD DUP5 DUP5 DUP5 ADD GT ISZERO PUSH2 0x9AB JUMPI PUSH2 0x9AA PUSH2 0x8C3 JUMP JUMPDEST JUMPDEST PUSH2 0x9B6 DUP5 DUP3 DUP6 PUSH2 0x96F JUMP JUMPDEST POP SWAP4 SWAP3 POP POP POP JUMP JUMPDEST PUSH0 DUP3 PUSH1 0x1F DUP4 ADD SLT PUSH2 0x9D2 JUMPI PUSH2 0x9D1 PUSH2 0x6F1 JUMP JUMPDEST JUMPDEST DUP2 CALLDATALOAD PUSH2 0x9E2 DUP5 DUP3 PUSH1 0x20 DUP7 ADD PUSH2 0x97D JUMP JUMPDEST SWAP2 POP POP SWAP3 SWAP2 POP POP JUMP JUMPDEST PUSH0 PUSH1 0x20 DUP3 DUP5 SUB SLT ISZERO PUSH2 0xA00 JUMPI PUSH2 0x9FF PUSH2 0x5BA JUMP JUMPDEST JUMPDEST PUSH0 DUP3 ADD CALLDATALOAD PUSH8 0xFFFFFFFFFFFFFFFF DUP2 GT ISZERO PUSH2 0xA1D JUMPI PUSH2 0xA1C PUSH2 0x5BE JUMP JUMPDEST JUMPDEST PUSH2 0xA29 DUP5 DUP3 DUP6 ADD PUSH2 0x9BE JUMP JUMPDEST SWAP2 POP POP SWAP3 SWAP2 POP POP JUMP JUMPDEST PUSH32 0x4E487B7100000000000000000000000000000000000000000000000000000000 PUSH0 MSTORE PUSH1 0x22 PUSH1 0x4 MSTORE PUSH1 0x24 PUSH0 REVERT JUMPDEST PUSH0 PUSH1 0x2 DUP3 DIV SWAP1 POP PUSH1 0x1 DUP3 AND DUP1 PUSH2 0xA76 JUMPI PUSH1 0x7F DUP3 AND SWAP2 POP JUMPDEST PUSH1 0x20 DUP3 LT DUP2 SUB PUSH2 0xA89 JUMPI PUSH2 0xA88 PUSH2 0xA32 JUMP JUMPDEST JUMPDEST POP SWAP2 SWAP1 POP JUMP JUMPDEST PUSH0 DUP2 SWAP1 POP SWAP3 SWAP2 POP POP JUMP JUMPDEST PUSH0 DUP2 SWAP1 POP DUP2 PUSH0 MSTORE PUSH1 0x20 PUSH0 KECCAK256 SWAP1 POP SWAP2 SWAP1 POP JUMP JUMPDEST PUSH0 DUP2 SLOAD PUSH2 0xAB7 DUP2 PUSH2 0xA5F JUMP JUMPDEST PUSH2 0xAC1 DUP2 DUP7 PUSH2 0xA8F JUMP JUMPDEST SWAP5 POP PUSH1 0x1 DUP3 AND PUSH0 DUP2 EQ PUSH2 0xADB JUMPI PUSH1 0x1 DUP2 EQ PUSH2 0xAF0 JUMPI PUSH2 0xB22 JUMP JUMPDEST PUSH1 0xFF NOT DUP4 AND DUP7 MSTORE DUP2 ISZERO ISZERO DUP3 MUL DUP7 ADD SWAP4 POP PUSH2 0xB22 JUMP JUMPDEST PUSH2 0xAF9 DUP6 PUSH2 0xA99 JUMP JUMPDEST PUSH0 JUMPDEST DUP4 DUP2 LT ISZERO PUSH2 0xB1A JUMPI DUP2 SLOAD DUP2 DUP10 ADD MSTORE PUSH1 0x1 DUP3 ADD SWAP2 POP PUSH1 0x20 DUP2 ADD SWAP1 POP PUSH2 0xAFB JUMP JUMPDEST DUP4 DUP9 ADD SWAP6 POP POP POP JUMPDEST POP POP POP SWAP3 SWAP2 POP POP JUMP JUMPDEST PUSH0 PUSH2 0xB36 DUP4 DUP6 PUSH2 0xA8F JUMP JUMPDEST SWAP4 POP PUSH2 0xB43 DUP4 DUP6 DUP5 PUSH2 0x96F JUMP JUMPDEST DUP3 DUP5 ADD SWAP1 POP SWAP4 SWAP3 POP POP POP JUMP JUMPDEST PUSH0 PUSH2 0xB5A DUP3 DUP7 PUSH2 0xAAB JUMP JUMPDEST SWAP2 POP PUSH2 0xB67 DUP3 DUP5 DUP7 PUSH2 0xB2B JUMP JUMPDEST SWAP2 POP DUP2 SWAP1 POP SWAP5 SWAP4 POP POP POP POP JUMP JUMPDEST PUSH0 DUP2 SWAP1 POP DUP2 PUSH0 MSTORE PUSH1 0x20 PUSH0 KECCAK256 SWAP1 POP SWAP2 SWAP1 POP JUMP JUMPDEST PUSH0 PUSH1 0x20 PUSH1 0x1F DUP4 ADD DIV SWAP1 POP SWAP2 SWAP1 POP JUMP JUMPDEST PUSH0 DUP3 DUP3 SHL SWAP1 POP SWAP3 SWAP2 POP POP JUMP JUMPDEST PUSH0 PUSH1 0x8 DUP4 MUL PUSH2 0xBD0 PUSH32 0xFFFFFFFFFFFFFFFFFFFFFFFFFFFFFFFFFFFFFFFFFFFFFFFFFFFFFFFFFFFFFFFF DUP3 PUSH2 0xB95 JUMP JUMPDEST PUSH2 0xBDA DUP7 DUP4 PUSH2 0xB95 JUMP JUMPDEST SWAP6 POP DUP1 NOT DUP5 AND SWAP4 POP DUP1 DUP7 AND DUP5 OR SWAP3 POP POP POP SWAP4 SWAP3 POP POP POP JUMP JUMPDEST PUSH0 DUP2 SWAP1 POP SWAP2 SWAP1 POP JUMP JUMPDEST PUSH0 PUSH2 0xC15 PUSH2 0xC10 PUSH2 0xC0B DUP5 PUSH2 0x82F JUMP JUMPDEST PUSH2 0xBF2 JUMP JUMPDEST PUSH2 0x82F JUMP JUMPDEST SWAP1 POP SWAP2 SWAP1 POP JUMP JUMPDEST PUSH0 DUP2 SWAP1 POP SWAP2 SWAP1 POP JUMP JUMPDEST PUSH2 0xC2E DUP4 PUSH2 0xBFB JUMP JUMPDEST PUSH2 0xC42 PUSH2 0xC3A DUP3 PUSH2 0xC1C JUMP JUMPDEST DUP5 DUP5 SLOAD PUSH2 0xBA1 JUMP JUMPDEST DUP3 SSTORE POP POP POP POP JUMP JUMPDEST PUSH0 SWAP1 JUMP JUMPDEST PUSH2 0xC56 PUSH2 0xC4A JUMP JUMPDEST PUSH2 0xC61 DUP2 DUP5 DUP5 PUSH2 0xC25 JUMP JUMPDEST POP POP POP JUMP JUMPDEST JUMPDEST DUP2 DUP2 LT ISZERO PUSH2 0xC84 JUMPI PUSH2 0xC79 PUSH0 DUP3 PUSH2 0xC4E JUMP JUMPDEST PUSH1 0x1 DUP2 ADD SWAP1 POP PUSH2 0xC67 JUMP JUMPDEST POP POP JUMP JUMPDEST PUSH1 0x1F DUP3 GT ISZERO PUSH2 0xCC9 JUMPI PUSH2 0xC9A DUP2 PUSH2 0xB74 JUMP JUMPDEST PUSH2 0xCA3 DUP5 PUSH2 0xB86 JUMP JUMPDEST DUP2 ADD PUSH1 0x20 DUP6 LT ISZERO PUSH2 0xCB2 JUMPI DUP2 SWAP1 POP JUMPDEST PUSH2 0xCC6 PUSH2 0xCBE DUP6 PUSH2 0xB86 JUMP JUMPDEST DUP4 ADD DUP3 PUSH2 0xC66 JUMP JUMPDEST POP POP JUMPDEST POP POP POP JUMP JUMPDEST PUSH0 DUP3 DUP3 SHR SWAP1 POP SWAP3 SWAP2 POP POP JUMP JUMPDEST PUSH0 PUSH2 0xCE9 PUSH0 NOT DUP5 PUSH1 0x8 MUL PUSH2 0xCCE JUMP JUMPDEST NOT DUP1 DUP4 AND SWAP2 POP POP SWAP3 SWAP2 POP POP JUMP JUMPDEST PUSH0 PUSH2 0xD01 DUP4 DUP4 PUSH2 0xCDA JUMP JUMPDEST SWAP2 POP DUP3 PUSH1 0x2 MUL DUP3 OR SWAP1 POP SWAP3 SWAP2 POP POP JUMP JUMPDEST PUSH2 0xD1A DUP3 PUSH2 0x647 JUMP JUMPDEST PUSH8 0xFFFFFFFFFFFFFFFF DUP2 GT ISZERO PUSH2 0xD33 JUMPI PUSH2 0xD32 PUSH2 0x8C7 JUMP JUMPDEST JUMPDEST PUSH2 0xD3D DUP3 SLOAD PUSH2 0xA5F JUMP JUMPDEST PUSH2 0xD48 DUP3 DUP3 DUP6 PUSH2 0xC88 JUMP JUMPDEST PUSH0 PUSH1 0x20 SWAP1 POP PUSH1 0x1F DUP4 GT PUSH1 0x1 DUP2 EQ PUSH2 0xD79 JUMPI PUSH0 DUP5 ISZERO PUSH2 0xD67 JUMPI DUP3 DUP8 ADD MLOAD SWAP1 POP JUMPDEST PUSH2 0xD71 DUP6 DUP3 PUSH2 0xCF6 JUMP JUMPDEST DUP7 SSTORE POP PUSH2 0xDD8 JUMP JUMPDEST PUSH1 0x1F NOT DUP5 AND PUSH2 0xD87 DUP7 PUSH2 0xB74 JUMP JUMPDEST PUSH0 JUMPDEST DUP3 DUP2 LT ISZERO PUSH2 0xDAE JUMPI DUP5 DUP10 ADD MLOAD DUP3 SSTORE PUSH1 0x1 DUP3 ADD SWAP2 POP PUSH1 0x20 DUP6 ADD SWAP5 POP PUSH1 0x20 DUP2 ADD SWAP1 POP PUSH2 0xD89 JUMP JUMPDEST DUP7 DUP4 LT ISZERO PUSH2 0xDCB JUMPI DUP5 DUP10 ADD MLOAD PUSH2 0xDC7 PUSH1 0x1F DUP10 AND DUP3 PUSH2 0xCDA JUMP JUMPDEST DUP4 SSTORE POP JUMPDEST PUSH1 0x1 PUSH1 0x2 DUP9 MUL ADD DUP9 SSTORE POP POP POP JUMPDEST POP POP POP POP POP POP JUMP JUMPDEST PUSH2 0xDE9 DUP2 PUSH2 0x82F JUMP JUMPDEST DUP3 MSTORE POP POP JUMP JUMPDEST PUSH2 0xDF8 DUP2 PUSH2 0x752 JUMP JUMPDEST DUP3 MSTORE POP POP JUMP JUMPDEST PUSH0 PUSH1 0x60 DUP3 ADD SWAP1 POP PUSH2 0xE11 PUSH0 DUP4 ADD DUP7 PUSH2 0xDE0 JUMP JUMPDEST DUP2 DUP2 SUB PUSH1 0x20 DUP4 ADD MSTORE PUSH2 0xE23 DUP2 DUP6 PUSH2 0x699 JUMP JUMPDEST SWAP1 POP PUSH2 0xE32 PUSH1 0x40 DUP4 ADD DUP5 PUSH2 0xDEF JUMP JUMPDEST SWAP5 SWAP4 POP POP POP POP JUMP INVALID LOG2 PUSH5 0x6970667358 0x22 SLT KECCAK256 PUSH0 CREATE2 PUSH30 0x7204D66F60A93EB3FD691FCD29B3AC4649481F79DE900E407682122B2664 PUSH20 0x6F6C634300081400330000000000000000000000 "
    },
    "gasEstimates": {
      "creation": {
        "codeDepositCost": "739200",
        "executionCost": "infinite",
        "totalCost": "infinite"
      },
      "external": {
        "lastGreetingOf(address)": "infinite",
        "messages(address)": "infinite",
        "postUpgrade(string)": "infinite",
        "prefix()": "infinite",
        "setMessage(string,uint24)": "infinite"
      }
    },
    "methodIdentifiers": {
      "lastGreetingOf(address)": "03433b8e",
      "messages(address)": "5fdd59f8",
      "postUpgrade(string)": "b1441ce6",
      "prefix()": "75dadb32",
      "setMessage(string,uint24)": "4c2dd808"
    }
  },
  "storageLayout": {
    "storage": [
      {
        "astId": 78,
        "contract": "src/GreetingsRegistry.sol:GreetingsRegistry",
        "label": "_messages",
        "offset": 0,
        "slot": "0",
        "type": "t_mapping(t_address,t_struct(Message)73_storage)"
      },
      {
        "astId": 80,
        "contract": "src/GreetingsRegistry.sol:GreetingsRegistry",
        "label": "_prefix",
        "offset": 0,
        "slot": "1",
        "type": "t_string_storage"
      }
    ],
    "types": {
      "t_address": {
        "encoding": "inplace",
        "label": "address",
        "numberOfBytes": "20"
      },
      "t_mapping(t_address,t_struct(Message)73_storage)": {
        "encoding": "mapping",
        "key": "t_address",
        "label": "mapping(address => struct GreetingsRegistry.Message)",
        "numberOfBytes": "32",
        "value": "t_struct(Message)73_storage"
      },
      "t_string_storage": {
        "encoding": "bytes",
        "label": "string",
        "numberOfBytes": "32"
      },
      "t_struct(Message)73_storage": {
        "encoding": "inplace",
        "label": "struct GreetingsRegistry.Message",
        "members": [
          {
            "astId": 68,
            "contract": "src/GreetingsRegistry.sol:GreetingsRegistry",
            "label": "content",
            "offset": 0,
            "slot": "0",
            "type": "t_string_storage"
          },
          {
            "astId": 70,
            "contract": "src/GreetingsRegistry.sol:GreetingsRegistry",
            "label": "timestamp",
            "offset": 0,
            "slot": "1",
            "type": "t_uint256"
          },
          {
            "astId": 72,
            "contract": "src/GreetingsRegistry.sol:GreetingsRegistry",
            "label": "dayTimeInSeconds",
            "offset": 0,
            "slot": "2",
            "type": "t_uint24"
          }
        ],
        "numberOfBytes": "96"
      },
      "t_uint24": {
        "encoding": "inplace",
        "label": "uint24",
        "numberOfBytes": "3"
      },
      "t_uint256": {
        "encoding": "inplace",
        "label": "uint256",
        "numberOfBytes": "32"
      }
    }
  },
  "userdoc": {
    "events": {
      "MessageChanged(address,uint256,string,uint24)": {
        "notice": "emitted whenever a user set a new greeting to the world"
      }
    },
    "kind": "user",
    "methods": {
      "lastGreetingOf(address)": {
        "notice": "return the last greeting message from the given `user`."
      },
      "messages(address)": {
        "notice": "return the last message from the given `user`."
      },
      "prefix()": {
        "notice": "return the prefix that is appended to any new message."
      },
      "setMessage(string,uint24)": {
        "notice": "set a new message for `msg.sender`."
      }
    },
    "notice": "a registry that let user send greetings to the world  It is used as a demo for jolly-roger,  a fully featured SDK to build entirely decentralised apps and games  It is inteded to be deployed via upgradeable proxy locally  to showcase the HCR (Hot Contract Replacement) capabilities of `hardhat-deploy`  but immutable on live networks.",
    "version": 1
  },
  "argsData": "0x000000000000000000000000b62f3c5c2e30de9d40529c7afb9d245ccb64243600000000000000000000000061c461ecc993aadeb7e4b47e96d1b8cc37314b2000000000000000000000000000000000000000000000000000000000000000600000000000000000000000000000000000000000000000000000000000000000",
  "nonce": "0x53",
  "txOrigin": "0x61c461ecc993aadeb7e4b47e96d1b8cc37314b20",
  "_format": "hh-sol-artifact-1"
}