{
  "abi": [
    {
      "inputs": [
        {
          "internalType": "uint256",
          "name": "id",
          "type": "uint256"
        }
      ],
      "stateMutability": "nonpayable",
      "type": "constructor"
    },
    {
      "anonymous": false,
      "inputs": [
        {
          "indexed": true,
          "internalType": "address",
          "name": "user",
          "type": "address"
        },
        {
          "indexed": false,
          "internalType": "string",
          "name": "message",
          "type": "string"
        }
      ],
      "name": "MessageChanged",
      "type": "event"
    },
    {
      "inputs": [
        {
          "internalType": "string",
          "name": "message",
          "type": "string"
        }
      ],
      "name": "fails",
      "outputs": [],
      "stateMutability": "nonpayable",
      "type": "function"
    },
    {
      "inputs": [
        {
          "internalType": "uint256",
          "name": "id",
          "type": "uint256"
        }
      ],
      "name": "postUpgrade",
      "outputs": [],
      "stateMutability": "nonpayable",
      "type": "function"
    },
    {
      "inputs": [
        {
          "internalType": "string",
          "name": "message",
          "type": "string"
        }
      ],
      "name": "setMessage",
      "outputs": [],
      "stateMutability": "nonpayable",
      "type": "function"
    }
  ],
  "address": "0xC1B82f3D6eFf88482247e2084DD4dD9F2EcC7995",
  "args": [
    2
  ],
  "solcInputHash": "0x2d6044a489f8a0dc8dc3adac545ddad91ddb070acd2b9b1791f1d49790626288",
  "bytecode": "0x608060405234801561001057600080fd5b506040516106d73803806106d78339818101604052602081101561003357600080fd5b505161003e81610044565b50610098565b6000805160206106b7833981519152546001600160a01b03811661007f576001600160a01b036000805160206106b783398151915255610094565b336001600160a01b0382161461009457600080fd5b5050565b610610806100a76000396000f3fe608060405234801561001057600080fd5b50600436106100415760003560e01c8063368b877214610046578063adab5b96146100b8578063dbceb17514610128575b600080fd5b6100b66004803603602081101561005c57600080fd5b81019060208101813564010000000081111561007757600080fd5b82018360208201111561008957600080fd5b803590602001918460018302840111640100000000831117156100ab57600080fd5b509092509050610145565b005b6100b6600480360360208110156100ce57600080fd5b8101906020810181356401000000008111156100e957600080fd5b8201836020820111156100fb57600080fd5b8035906020019184600183028401116401000000008311171561011d57600080fd5b5090925090506101db565b6100b66004803603602081101561013e57600080fd5b503561032e565b33600090815260208190526040902061015f908383610529565b503373ffffffffffffffffffffffffffffffffffffffff167f5de788bae851e5b8df641f15cc3e7e401946111d99b835b0e3f619b04f8ce68f838360405180806020018281038252848482818152602001925080828437600083820152604051601f909101601f19169092018290039550909350505050a25050565b6102506040518060400160405280600e81526020017f6974206661696c733a202725732700000000000000000000000000000000000081525083838080601f0160208091040260200160405190810160405280939291908181526020018383808284376000920191909152506103cd92505050565b3373ffffffffffffffffffffffffffffffffffffffff167f5de788bae851e5b8df641f15cc3e7e401946111d99b835b0e3f619b04f8ce68f838360405180806020018281038252848482818152602001925080828437600083820152604051601f909101601f19169092018290039550909350505050a2604080517f08c379a000000000000000000000000000000000000000000000000000000000815260206004820152600560248201527f6661696c73000000000000000000000000000000000000000000000000000000604482015290519081900360640190fd5b7fb53127684a568b3173ae13b9f8a6016e243e63b6e8ee1178d6a717850b5d61035473ffffffffffffffffffffffffffffffffffffffff81166103a75773ffffffffffffffffffffffffffffffffffffffff7fb53127684a568b3173ae13b9f8a6016e243e63b6e8ee1178d6a717850b5d6103556103c9565b3373ffffffffffffffffffffffffffffffffffffffff8216146103c957600080fd5b5050565b6103c98282604051602401808060200180602001838103835285818151815260200191508051906020019080838360005b838110156104165781810151838201526020016103fe565b50505050905090810190601f1680156104435780820380516001836020036101000a031916815260200191505b50838103825284518152845160209182019186019080838360005b8381101561047657818101518382015260200161045e565b50505050905090810190601f1680156104a35780820380516001836020036101000a031916815260200191505b5060408051601f198184030181529190526020810180517bffffffffffffffffffffffffffffffffffffffffffffffffffffffff167f4b5c42770000000000000000000000000000000000000000000000000000000017905294506105089350505050565b80516a636f6e736f6c652e6c6f67602083016000808483855afa5050505050565b828054600181600116156101000203166002900490600052602060002090601f016020900481019282601f10610588578280017fffffffffffffffffffffffffffffffffffffffffffffffffffffffffffffff008235161785556105b5565b828001600101855582156105b5579182015b828111156105b557823582559160200191906001019061059a565b506105c19291506105c5565b5090565b5b808211156105c157600081556001016105c656fea2646970667358221220b41132ab5c6a0ab26d18f1f47f614ea16f24bc29741b79772489b0da3a5daad364736f6c63430007010033b53127684a568b3173ae13b9f8a6016e243e63b6e8ee1178d6a717850b5d6103",
  "devdoc": {
    "kind": "dev",
    "methods": {},
    "version": 1
  },
  "userdoc": {
    "kind": "user",
    "methods": {},
    "version": 1
  },
  "storageLayout": {
    "storage": [
      {
        "astId": 8121,
        "contract": "src/GreetingsRegistry.sol:GreetingsRegistry",
        "label": "_messages",
        "offset": 0,
        "slot": "0",
        "type": "t_mapping(t_address,t_string_storage)"
      }
    ],
    "types": {
      "t_address": {
        "encoding": "inplace",
        "label": "address",
        "numberOfBytes": "20"
      },
      "t_mapping(t_address,t_string_storage)": {
        "encoding": "mapping",
        "key": "t_address",
        "label": "mapping(address => string)",
        "numberOfBytes": "32",
        "value": "t_string_storage"
      },
      "t_string_storage": {
        "encoding": "bytes",
        "label": "string",
        "numberOfBytes": "32"
      }
    }
  },
  "gasEstimates": {
    "creation": {
      "codeDepositCost": "310400",
      "executionCost": "infinite",
      "totalCost": "infinite"
    },
    "external": {
      "fails(string)": "infinite",
      "postUpgrade(uint256)": "21055",
      "setMessage(string)": "infinite"
    }
  }
}